:040000000200513277
:01000B0032C2
:0100130032BA
:01001B0032B2
:0100230032AA
:01002B0032A2
:01003300329A
:01003B003292
:01004300328A
:03004B00020E5D45
:2000AA007536C875370A7538AC75390D753AEE753B07E4F53CF53D753E12753F0B75402EF7
:2000CA0075410D7542F6754308F544F545F546F547F548F559F55A755B3C755CC8F5610225
:0200EA00004EC6
:03004E000205F2B6
:2000EC0075B1677E007F01EE24FFFCEF34FFFD8C068D07EC4D70F0E5B130E7FB75B2882205
:20010C00759850758920758DDCD28E438E10438780D29943A4012275FFDE75FFAD1200EC09
:20012C0012010C43E10443E34022AF8210990280FB8F992210980280FBAF998F82C00712EC
:20014C000136D0078F82222098057582FF800BC29885998212013685998222C00F85810F2B
:20016C00E50F24FBF886820886830886F0121801E5828583F045F070028062E50F24FBFFAC
:20018C008F0BE50F24FBF8860808860908860A90000175F00012106090000175F000121859
:2001AC0001AE827F00C3EF9E501FEF2401F582E43400F583E0FDBD0A0DEF2401F582E43455
:2001CC0000F583740DF00F80DC752D01752E00752F00752C008E307582C6120478D00F222A
:2001EC0075270074C0252740177532277533007534407531007535017582C61204F280E3A8
:20020C0075280C752D28752E00752F40752C007530017582C61204782275322A7533007536
:20022C0034407531017535027582C61204F274FFB52A05758200805F7F008F068EF005F072
:20024C007C017D008006EC2CFCED33FDD5F0F7AA2A7B00EA5204EB5205EC4D600774312FE0
:20026C00F58280330E8E07BE080040D0E52B30E0057582398021E52B30E10575822A8017FB
:20028C00E52B30E205758230800DE52B30E30575822380037582FF22AF82E4FDFEEF701D0E
:2002AC00C006C005742DC0E07419C0E07480C0E0120167158115811581D005D006C006C038
:2002CC00057408C0E0E4C0E07408C0E0E4C0E07408C0E0E4C0E07408C0E0E4C0E07408C051
:2002EC00E0E4C0E07443C0E07419C0E07480C0E0120167E58124F3F58190A12075F007E468
:20030C00120413D005D0067F00C007C006C005120225AC82D005D006D0078C03BCFF028077
:20032C0003BB2A17902710E4F5F0C007C006C005120413D005D006D00780CEBB232AC00609
:20034C00C005120225AC82D005D006BC2313902710E4F5F0C006C005120413D005D0068059
:20036C00DD8D828E830204128B027C00C007C006C005C004C003C002C002C0047453C0E0CB
:20038C007419C0E07480C0E0120167E58124FBF581D002D003D004D005D0068D118E129029
:2003AC00000AC004C003C002120FD3A882A983D002D003D004D007EA28F8EC39F9E824D040
:2003CC00FDE934FFFEC007C006C005C003120225AC82D003D005D006D007ECB5031B9027B3
:2003EC0010E4F5F0C007C006C005C003120413D003D005D006D00780CC0FBF050050030211
:20040C0003158D828E8322AC82AD83AEF0FF780079007A007B00C3E89CE99DEA9EEB9F5066
:20042C000F08B8000909B900050ABA00E90B80E62220C7FDD2C530C3FDC2C5C2C322858231
:20044C00C210C30280FB228582C2D2C410C30280FB2230C3FD85C282C2C32230C3FDAFC2CA
:20046C00C2C3D2C410C30280FB8F8222AF82C2AFC00712043DD00774FE5FF58212044A8512
:20048C002C8212044A7F00AD307E001DBDFF011E8F037C00C3EB9DEC64808EF063F0809561
:2004AC00F0501FEF252DFCE4352EFDAE2F8C828D838EF0121819F582C00712044AD0070F10
:2004CC0080C5AE307F001EBEFF011FEE252DFEEF352EFFAD2F8E828F838DF0121819F582AF
:2004EC00120453D2AF22AF82C2AFC00712043DD00774FE5FF582C00712044A853182120494
:20050C005312043DD00774014FF58212044A7F00AD357E001DBDFF011E8F037C00C3EB9D87
:20052C00EC64808EF063F08095F0502ED2C2EF2532FCE43533FDAE34C007C006C005C00474
:20054C0012045EAB82D004D005D006D0078C828D838EF0EB120FB80F80B6C2C2AE357F000D
:20056C001EBEFF011FEE2532FEEF3533FFAD34C007C006C005120467AC82D005D006D0077B
:20058C008E828F838DF0EC120FB8D2AF22752223752300752310752400752D22752E0075D9
:2005AC002F40752C2075300175823012047822752204752D22752E00752F40752C23753033
:2005CC000175823A12047875226B752300752400752D22752E00752F40752C2075300175F5
:2005EC00823A1204782212012312075512074512076812073012074F758220120136E4F516
:20060C004FF550F5517456C0E07419C0E07480C0E0121204158115811581120EAA1201EC16
:20062C00749CC0E07419C0E07480C0E012016715811581158120B74785363C85373D853E30
:20064C0044853F4574FFC39544F5EA74FF9545F5FA74FFC3953CF5EC74FF953DF5FCE561B3
:20066C0070D3120ACE858262858363856253856354120D4385825585835675610180B6E5E9
:20068C0046600F12076C85824D85834E120927754600E547602B120792AF828F4B754C003F
:2006AC00AE5C7F00C3EE954BEF954C50051207F3800C1207EC854982854A83120A317547A7
:2006CC0000E54870030206411201ECC04BC04CC049C04AC04DC04EC03CC03DC044C045746B
:2006EC00A7C0E07419C0E07480C0E0120167E58124F3F581C04BC04CC049C04AC04DC04E34
:20070C00C03CC03DC044C04574C5C0E07419C0E07480C0E0121204E58124F3F58175480059
:20072C000206412275D98175DAC275DDC275DCC275D84043E608D2AF2275D10375AA8043AF
:20074C00AB012275CF93D2C62253BDEF53A5EF43A50D43901053A78043B07F2275E12722C3
:20076C0075325D7533007534407531027535027582C01204F2AF5D7E00AC5E7D00EC4EF585
:20078C0082ED4FF5832275325D7533007534407531027535027582E01204F2AF5D7E00ACF7
:2007AC005E7D00EC4EF549ED4FF54A75325D8E337534407531017535017582E01204F2AFD1
:2007CC005D755D51752D5D752E00752F40752C007530017582E0C007120478D0078F82228A
:2007EC0085625385635422756500758204120E2CE582F56475F003A4FEAFF0253AF53CEF4C
:20080C00353BF53D74FFC3953CF5EC74FF953DF5FCE553C3954DF557E554954EF558E5573E
:20082C00C39559F559E558955AF55AC37408955774878558F063F08095F0500EE55724F039
:20084C00F557E55834F1F558801AC3E55794F8E55864809478500D7410C39557F557740EE1
:20086C009558F55885578285588312116DAC82AD83AEF0FFC004C005C006C00790000075CE
:20088C00F02074C0120EB4AC82AD83AEF0FFE58124FCF581853E82853F83C007C006C0055F
:2008AC00C00412117AA882A983AAF0FBD004D005D006D007C000C001C002C0038C828D8366
:2008CC008EF0EF1210EBAC82AD83AEF0FFE58124FCF5818C828D838EF0EF1211868582441C
:2008EC00858345C3E5409544E541954550088540448541458011C3E5449542E545954350CC
:20090C000685424485434574FFC39544F5EA74FF9545F5FA854D59854E5A22E553C3954D2C
:20092C00F557E554954EF558E557C39559F559E558955AF55AC37408955774878558F063EA
:20094C00F08095F0500EE55724F0F557E55834F1F558801AC3E55794F8E55864809478504B
:20096C000D7410C39557F557740E9558F55885578285588312116DAC82AD83AEF0FFC00416
:20098C00C005C006C00790000075F0207440120EB4AC82AD83AEF0FFE58124FCF581853EA2
:2009AC0082853F83C007C006C005C00412117AA882A983AAF0FBD004D005D006D007C000AE
:2009CC00C001C002C0038C828D838EF0EF1210EBAC82AD83AEF0FFE58124FCF5818C828D9B
:2009EC00838EF0EF121186858244858345C3E5409544E541954550088540448541458011FC
:200A0C00C3E5449542E5459543500685424485434574FFC39544F5EA74FF9545F5FA854D9B
:200A2C0059854E5A22AE82AF83756500758204C007C006120E2C858260D006D007C3EE9499
:200A4C001EEF9400500885363C85373D8041C3741E9EE49F502BC3EE9555EF95565022EE1A
:200A6C0024E2FEEF34FFFF8E118F12900018120FD3AC82AD83EC2536F53CED3537F53D8088
:200A8C000EC3743C9EE49F500685383C85393DE56075F003A4FEAFF0E53CC39EF53CE53D9B
:200AAC009FF53DC3E53C9536E53D9537500685363C85373D74FFC3953CF5EC74FF953DF554
:200ACC00FC221201EC74E0C0E07419C0E07480C0E0120167158115811581120225AF82C0D2
:200AEC0007120EA0D007BFFF0280EFC007120225AE82D007BEFFF4C0071201ECD007BF31D8
:200B0C00361201EC741FC0E0741AC0E07480C0E0120167158115811581742AC0E0741AC0D7
:200B2C00E07480C0E0121204158115811581120EAA900000020D42BF32361201EC743DC009
:200B4C00E0741AC0E07480C0E01201671581158115817449C0E0741AC0E07480C0E0121268
:200B6C0004158115811581120EAA900384020D42BF33361201EC745DC0E0741AC0E07480B7
:200B8C00C0E0120167158115811581746AC0E0741AC0E07480C0E012120415811581158143
:200BAC00120EAA900708020D42BF34361201EC747FC0E0741AC0E07480C0E01201671581E2
:200BCC0015811581748CC0E0741AC0E07480C0E0121204158115811581120EAA900A8C029F
:200BEC000D42BF30028003020AE61201EC74A1C0E0741AC0E07480C0E01201671581158118
:200C0C001581120225AF82C007120EA0D007BFFF0280EFC007120225AE82D007BEFFF4C0C3
:200C2C00071201ECD007EF24D075F064A4FEFC7D00C006C004C00574D9C0E0741AC0E07426
:200C4C0080C0E0120167E58124FBF581D006C006120225AF82D006C007C006120EA0D006F4
:200C6C00D007BFFF0280E7C007C006120225AD82D006D007BDFFF0C007C0061201ECD006BA
:200C8C00D007EF24D075F00AA42EFEFC7D00C006C004C00574D9C0E0741AC0E07480C0E0D8
:200CAC00120167E58124FBF581D006C006120225AF82D006C007C006120EA0D006D007BF1E
:200CCC00FF0280E7C007C006120225AD82D006D007BDFFF0C007C0061201ECD006D007EF2A
:200CEC0024D02EFEFD7F00C007C006C005C005C00774D9C0E0741AC0E07480C0E012016745
:200D0C00E58124FBF581D005D006D007C006C005C00774DCC0E0741AC0E07480C0E0121222
:200D2C0004E58124FBF581120EAAD006EE75F00AA4F58285F083221201EC74F0C0E0741AE5
:200D4C00C0E07480C0E0120167158115811581120225AF82C007120EA0D007BFFF0280EF20
:200D6C00C007120225AE82D007BEFFF4C0071201ECD007EF24D075F00AA4FEFC7D00C006DF
:200D8C00C004C00574D9C0E0741AC0E07480C0E0120167E58124FBF581D006C006120225C5
:200DAC00AF82D006C007C006120EA0D006D007BFFF0280E7C007C006120225AD82D006D064
:200DCC0007BDFFF0C007C0061201ECD006D007EF24D02EFE7F00C007C006C006C00774D926
:200DEC00C0E0741AC0E07480C0E0120167E58124FBF581D006D007C007C006C006C00774D5
:200E0C0030C0E0741BC0E07480C0E0121204E58124FBF581120EAAD006D0078E828F832255
:200E2C008582AC53AADF43AA10E5AA30E5FBE5657005859C82801985651175120090010964
:200E4C00121875AE82AF83EE04F5F0E59C84F58222C0E0C0D010DF02803275E9FF75F96F03
:200E6C000552055074FE25505006754601755000054F74FC254F5006754701754F00055197
:200E8C0074CE2551500675480175510053D8C0D0D0D0E03275520074FA255250FA22755268
:080EAC000074CE255250FA2219
:20192D000A54797065206469676974733B20656E6420772F230020202020202563256325FA
:20194D006325632563002563004120627261766520636172207374616E647320616C6F6E41
:20196D006520616761696E737420746865206D616E7920686F72726F7273206F6E20746890
:20198D006520626174746C656669656C642100476F6F64206C75636B2100533A2025692040
:2019AD004D3A2025690A483A20256920523A2025690A4C3A20256900533A2569094D3A2543
:2019CD006909483A256909523A2569094C3A25690D0A005069636B2048656164696E670AC0
:2019ED0050726573732061204E756D6265720A313A203020323A20393020333A20313830A3
:201A0D000A343A2032373020303A20637573746F6D0048656164696E673A203000446573ED
:201A2D00697265642048656164696E673A20300048656164696E673A2039300044657369A3
:201A4D007265642048656164696E673A2039300048656164696E673A2031383000446573EC
:201A6D00697265642048656164696E673A203138300048656164696E673A2032373000440B
:201A8D006573697265642048656164696E673A2032373000456E74657220796F7572206E7F
:201AAD00756D6265720A537461727420776974682030730A6966206E6565642062650A734E
:201ACD006F2034352069732030343500256900446573697265642048656164696E673A20D4
:201AED002569005069636B20612052616E67650A50726573732061204E756D6265720A42C9
:201B0D0065747765656E203020616E642038300A656E746572207769746820302066697250
:151B2D00737400446573697265642052616E67653A2025690007
:200EB400120F57BC00030211B2EF60FA30D502B2D1E583B4FF030211C8E582B4FF03021126
:200ED400C8258340072482400B0211B224831450030211C8F582EA8DF0A4A8F0EA8EF0A482
:200EF40028F8E435F0F9EB8DF0A428E935F0F9E433CA8FF0A429F9EA35F0FAEBF88EF0A44D
:200F140029F9EA35F0FAE433FBEC8DF0A429F9EA35F0FAE43BFBE88FF0A42AFAEB35F0FBF4
:200F3400E433CCFD8EF0A42AFAEB35F0FBE43CFCED8FF0A42BFBEC35F0FC20E703120F855D
:030F5400021191F6
:200F5700AA82AB83A2F73392D1F5826002D2F7ACF0E58124F9F8E6FD08E6FE0886F008E6FD
:0E0F7700A2F73392D5F5836002D2F7AFF022D5
:06008000E478FFF6D8FD54
:200F85007804EC7011E58224F8500AF582E4C9CACBFCD8EF22EC7820058220E713D582016B
:130FA50022C3E933F9EA33FAEB33FBEC33FCD8EA15822279
:20005E007900E94400601B7A00901B4D785175AF00E493F2A308B8000205AFD9F4DAF27572
:02007E00AFFFD2
:1B0FB80020F71130F6138883A88220F509F6A8837583002280FEF280F5F02238
:1D0FD300E5828511F0A4C582C0F08512F0A4D0F025F0C5838511F0A42583F58322C5
:200FF000C00F85810FC082058105810581E50F24FBF8A90F0909E6F70809E6F70809E6F79B
:20101000A80F080886820886830886F0121819FAA3121819FBA3121819FF74012AFCE43BA5
:20103000FD8F06A80F080886820886830886F0EC120FB8A3ED120FB8A3EE120FB88A828B81
:20105000838FF0A80F08E6120FB8850F81D00F2285820C85830D85F00E75720C75730075EF
:201070007440850875850976850A77850B78900FF01212DBAE82AF83AB0CAC0DAD0E8B8270
:201090008C838DF0E4120FB88E828F8322C00F85810FE50F24F8FF8F78E50F24FBFF8F72A6
:2010B000757300757440E50F24F8F88675088676088677900FF01212DBAE82AF83E50F24FB
:1B10D000FBF886030886040886058B828C838DF0E4120FB88E828F83D00F22EB
:200086007800E84400600A790175AF00E4F309D8FC7850E84400600C7901900001E4F0A318
:0400A600D8FCD9FAAF
:2010EB00120F577900E583B58202800D50031217E7E583C395821218ADE5D0C465D020E19B
:20110B0017EA2DFAEB3EFBEC3FFC500974011218ADEC4480FC021191C3EA9DFAEB9EFBECA8
:19112B009FFC500FC3E499F9E49AFAE49BFBE49CFCB2D1120F850211913D
:201144007A10E4FBFCE58225E0F582E58333F583EB33FBEC33FCEB9511F5F0EC95124006AD
:09116400FCABF0438201DADD224C
:0D116D00AC83AB827A007900748E02183ECC
:0C117A00E4AC83AB82FAF9748E02186BAF
:0B1186007F8E1218F6F58385F08222A0
:20119100B98003EA13B34010EA2401FAE43BFBE43CFC50047C800582BC000EBB000BBA00A2
:2011B10008E4F5F0F583F58222A2D1E582138CF092F78B838A8222E4F583F58275F080F462
:0F11D100A2D11322E4F583F58275F0C0747F225A
:2011E000C00F85810F120136D00F2285827585837685F077E4F572F573F574851078901111
:20120000E00212DBC00F85810FE50F24FBFF8F78E4F572F573F574E50F24FBF88675088652
:0D122000760886779011E01212DBD00F22C5
:20122D00AF82C068C069C06A12123A8007C066C0678F82221581158115810570E4B570024E
:20124D00057122AF8274302FFF24C6500A74072FFF3000034307208F8202122DE582FFC4E0
:20126D00540FF582C007121250D007740F5FF582021250858211856B12856C13856D14850F
:20128D006E15AA6F751620EA2AFAE515235401FF8A064EFAE5122512F512E51333F513E556
:2012AD001433F514E51533F515C3EA95114008EAC39511FA431201E51614FF8F1670C885EC
:2012CD00126B85136C85146D85156E8A6F2285826685836785726885736985746AE4F5700F
:2012ED00F571AD75AE76AF778D828E838FF0121819FC74012DF575E43EF5768F77ECFF7037
:20130D00030217E0BF250280030217D8C201C202C203C204C205C206C207C20875790075D3
:20132D007A00757BFFAA75AB76AE778A828B838EF0121819FFA3AA82AB838A758B768E77F6
:20134D00BF25078F8212122D8098BF3000402DEF24C6402874FFB57B12E57A75F00AA42F28
:20136D00FC24D0F57A70C4D20280C0E57B75F00AA4FC8F05ED2C24D0F57B80AFBF2E0A749F
:20138D00FFB57BA7757B0080A2BF6100400CEF248540075307DFD2008002C200BF2002805D
:2013AD006DBF2B028063BF2D028059BF42028063BF43028068BF440302157EBF4603021591
:2013CD0094BF4803021338BF490302157EBF4A03021338BF4C028040BF4F03021585BF5093
:2013ED0003021513BF5302805ABF5403021338BF550302158ABF580302158FBF5A030213B9
:20140D0038021598D201021338D203021338D204021338D206021338D20702133830060AE8
:20142D00E57814F9897887078011E57824FEFE8E788E018705098706198D078F8212122DD2
:20144D000215A1E57824FDFE8E788E01870409870509870619198C6B8D6C8E6D8C828D83C5
:20146D008EF0121801AD82AE8374FFB57B028D7B200126C3ED957A5020E57AC39DF57AAE57
:20148D007A8E041EEC6010758220C006C00512122DD005D00680EA8E7AAE7B856B82856C1D
:2014AD0083856DF0121819FCFF602F8E041EC374808CF063F08095F050208F82C006C005A6
:2014CD0012122DD005D006AA6BAB6CAC6D0ABA00010B8A6B8B6C8C6D80C12001030215A1EC
:2014ED00C3ED957A40030215A1E57AC39DF57AAE7A8E041EEC700302159F758220C006121B
:20150D00122DD00680EBE57824FDFC8C788C01870209870309870419198A6B8B6C8C6DACC0
:20152D006DBC800040047F438014BC600040047F50800BBC400040047F4980027F588F822F
:20154D00C00712122D75823A12122D75823012122D75827812122DD007BF4902800BBF5031
:20156D00028006856C82121269856B821212698023D20575790A801C757908801775790A44
:20158D008012757910800DD20880098F8212122D80028E7A30085CE57824FCFE8E788E012E
:2015AD0087020987030987040987061919198A6B8B6C8C6D8E6E756B42756C1B756D8085A7
:2015CD006B7D856C7E856D7F7401257DFAE4357EFCAE7F8A6B8C6C8E6D857D82857E8385EE
:2015ED007FF0121819FEFF70030212EF8F8212122D80CCE57970030212EF757C1C30062DC7
:20160D00E57814F9897887048C027B007C007E008A6B8B6C8C6D8E6E200566AA6B7B007C4C
:20162D00007E008A6B8B6C8C6D8E6E8054300721E57824FCFE8E788E018702098703098756
:20164D00040987061919198A6B8B6C8C6D8E6E8030E57824FEFE8E788E01870409870619BB
:20166D00EE3395E0FBFA8C6B8E6C8B6D8A6E200510AA6BAB6C7C007E008A6B8B6C8C6D8E23
:20168D006E300522E56E30E71BC3E4956BFAE4956CFBE4956DFCE4956EFE8A6B8B6C8C6DC6
:2016AD008E6E8002C205D209A97C7E00756F00857982C006C001121280D001D00620090BF0
:2016CD00E56FC4FCE7FB4CF7198002A76F0EB209E56B456C456D456E70D2897C8E05E57AAB
:2016ED007003757A01200224200121ED04FEAC7AC3EE9C5015758220C006C005C0041212A1
:20170D002DD004D005D0061C80E68C7A30050E75822DC00512122DD005157A8023ED602097
:20172D0030030E75822BC00512122DD005157A800F30040C758220C00512122DD005157A5F
:20174D00200126AE7A8E041EC3ED9C502F3002067B307C0080047B207C008B82C006C00500
:20176D0012122DD005D00680DCC3ED957A5008E57AC39DF57A8007757A0080028E7AA97C9A
:20178D008D068E051EED6026B20920090A09E7C4540FFD8D6F80078705740F5DF56F856F3C
:2017AD0082C006C001121250D001D00680D42001030212EFAE7A8E051EED70030212EF75CC
:1A17CD008220C00612122DD00680EB8F8212122D0212EF8570828571832291
:0B1B42003C4E4F20464C4F41543E00EB
:1A17E700E582C583F582A2D133A2D592D11392D5ECCFFCEBCEFBEACDFA228A
:18180100AA82AB831218196003A380F8C3E5829AF582E5839BF58322DC
:0D00510075817F1218F0E582600302004EF9
:1C18190020F71430F6148883A88220F507E6A88375830022E280F7E49322E022DE
:20183500FCABF0AA83A982749EF582C2D1EC30E716D2D1E9F42401F9EAF43400FAEBF434B2
:0D18550000FBECF43400FC120F8502119131
:13186200FCABF0AA83A982749EC2D1F582120F850211911E
:20187500C2D5E58330E70DD2D5E4C39582F582E49583F583E51230E70DB2D5E4C39511F5FC
:1818950011E49512F51212114430D50BE4C39582F582E49583F5832256
:2018AD006040F82582500274FFF582E824F8501ECCCBCAF9E4CC24F85014CBCAF9E4CB2443
:2018CD00F8500BCAF9E4CA24F8500379002224086010F8C3EC13FCEB13FBEA13FAE913F9F6
:0318ED00D8F1220D
:0418F00075820022DB
:2018F4007F9E12191B30D1030211B2C3EF9582500974FFF5F0F583F5822279001218AD8944
:07191400828A838BF0EC22B4
:12191B00AA82AB83A2F73392D1F5826002D2F7ACF022D1
:00000001FF
