:040000000200513277
:01000B0032C2
:0100130032BA
:01001B0032B2
:0100230032AA
:01002B0032A2
:01003300329A
:01003B003292
:01004300328A
:03004B0002067832
:2000AA007536C875370A7538EE753907753AAC753B0DE4F53CF53DF545F5467547E002004B
:0100CA004EE7
:03004E000205D1D7
:2000CB0075B1677E007F01EE24FFFCEF34FFFD8C068D07EC4D70F0E5B130E7FB75B2882226
:2000EB00759850758920758DDCD28E438E10438780D29943A4012275FFDE75FFAD1200CB4C
:20010B001200EB43E10443E34022AF8210990280FB8F992210980280FBAF998F82C007122F
:20012B000115D0078F82222098057582FF800BC29885998212011585998222C00F85810F8E
:20014B00E50F24FBF886820886830886F0120EEEE5828583F045F070028062E50F24FBFFEA
:20016B008F0BE50F24FBF8860808860908860A90000175F00012085C90000175F000120E90
:20018B00EEAE827F00C3EF9E501FEF2401F582E43400F583E0FDBD0A0DEF2401F582E43489
:2001AB0000F583740DF00F80DC752D01752E00752F00752C008E307582C6120457D00F226C
:2001CB0075270074C0252740177532277533007534407531007535017582C61204D180E3EA
:2001EB0075280C752D28752E00752F40752C007530017582C61204572275322A7533007579
:20020B0034407531017535027582C61204D174FFB52A05758200805F7F008F068EF005F0B4
:20022B007C017D008006EC2CFCED33FDD5F0F7AA2A7B00EA5204EB5205EC4D600774312F01
:20024B00F58280330E8E07BE080040D0E52B30E0057582398021E52B30E10575822A80171C
:20026B00E52B30E205758230800DE52B30E30575822380037582FF22AF82E4FDFEEF701D2F
:20028B00C006C0057426C0E0740FC0E07480C0E0120146158115811581D005D006C006C08B
:2002AB00057408C0E0E4C0E07408C0E0E4C0E07408C0E0E4C0E07408C0E0E4C0E07408C072
:2002CB00E0E4C0E0743CC0E0740FC0E07480C0E0120146E58124F3F58190A12075F007E4BB
:2002EB001203F2D005D0067F00C007C006C005120204AC82D005D006D0078C03BCFF0280DC
:20030B0003BB2A17902710E4F5F0C007C006C0051203F2D005D006D00780CEBB232AC0064C
:20032B00C005120204AC82D005D006BC2313902710E4F5F0C006C0051203F2D005D00680BD
:20034B00DD8D828E830203F18B027C00C007C006C005C004C003C002C002C004744CC0E015
:20036B00740FC0E07480C0E0120146E58124FBF581D002D003D004D005D0068D118E129075
:20038B00000AC004C003C0021207CFA882A983D002D003D004D007EA28F8EC39F9E824D06D
:2003AB00FDE934FFFEC007C006C005C003120204AC82D003D005D006D007ECB5031B9027F5
:2003CB0010E4F5F0C007C006C005C0031203F2D003D005D006D00780CC0FBF050050030254
:2003EB0002F48D828E8322AC82AD83AEF0FF780079007A007B00C3E89CE99DEA9EEB9F50AA
:20040B000F08B8000909B900050ABA00E90B80E62220C7FDD2C530C3FDC2C5C2C322858252
:20042B00C210C30280FB228582C2D2C410C30280FB2230C3FD85C282C2C32230C3FDAFC2EB
:20044B00C2C3D2C410C30280FB8F8222AF82C2AFC00712041CD00774FE5FF5821204298575
:20046B002C821204297F00AD307E001DBDFF011E8F037C00C3EB9DEC64808EF063F08095A3
:20048B00F0501FEF252DFCE4352EFDAE2F8C828D838EF0120F06F582C007120429D0070F6E
:2004AB0080C5AE307F001EBEFF011FEE252DFEEF352EFFAD2F8E828F838DF0120F06F582EC
:2004CB00120432D2AF22AF82C2AFC00712041CD00774FE5FF582C007120429853182120418
:2004EB003212041CD00774014FF5821204297F00AD357E001DBDFF011E8F037C00C3EB9D0C
:20050B00EC64808EF063F08095F0502ED2C2EF2532FCE43533FDAE34C007C006C005C00495
:20052B0012043DAB82D004D005D006D0078C828D838EF0EB1207B40F80B6C2C2AE357F005B
:20054B001EBEFF011FEE2532FEEF3533FFAD34C007C006C005120446AC82D005D006D007BD
:20056B008E828F838DF0EC1207B4D2AF22752223752300752310752400752D22752E007506
:20058B002F40752C2075300175823012045722752204752D22752E00752F40752C23753075
:2005AB000175823A12045775226B752300752400752D22752E00752F40752C207530017537
:2005CB00823A1204572212010275822012011512065512065F120669120663744FC0E074BA
:2005EB000FC0E07480C0E012090B15811581158185363C85373DE4F53EF53F14C3953CF5ED
:20060B00EC74FF953DF5FCC3E53E944BE53F940040F530B6FDE54260F9120772858243853E
:20062B008344754200C043C044745BC0E0740FC0E07480C0E012090BE58124FBF58185431B
:20064B00828544831206A780C92243A50453A7BF43B0402275E1272275CF93D2C62275D91F
:20066B008175DCC275D84043E608D2AF22C0E0C0D010DF02801E75E9FF75F96F053EE4B5A5
:20068B003E02053F054174FC2541500B754201754100800353D840D0D0D0E032AE82AF8314
:2006AB00C3740A9EE49F4009853A3C853B3D02074BC3740A9EE49F502CC3EE9428EF94006A
:2006CB005023EE24F6FEEF34FFFF8E118F129000181207CFAC82AD83E53AC39CF53CE53B78
:2006EB009DF53D805BC374289EE49F5011C3EE9432EF9400500885363C85373D8042C37429
:20070B00329EE49F502CC3EE945AEF94005023EE24CEFEEF34FFFF8E118F12900012120770
:20072B00CFAC82AD83E536C39CF53CE5379DF53D800EC3745A9EE49F500685383C85393D61
:20074B00C03CC03D7466C0E0740FC0E07480C0E012090BE58124FBF58174FFC3953CF5EC5B
:20076B0074FF953DF5FC227532487533007534407531027535028547821204D1AF487E0098
:20078B00AC497D00EC4EF545ED4FF546754851752D488E2E752F408E2C7530018547821299
:0907AB000457854582854683222E
:200F26000A54797065206469676974733B20656E6420772F2300202020202025632563250B
:200F4600632563256300256300426967205468696E6B0A0D0052616E67653A202569200054
:090F660050573A2025750A0D00D0
:06008000E478FFF6D8FD54
:20005E007900E94400601B7A00900F7A785175AF00E493F2A308B8000205AFD9F4DAF27551
:02007E00AFFFD2
:1B07B40020F71130F6138883A88220F509F6A8837583002280FEF280F5F02244
:1D07CF00E5828511F0A4C582C0F08512F0A4D0F025F0C5838511F0A42583F58322D1
:2007EC00C00F85810FC082058105810581E50F24FBF8A90F0909E6F70809E6F70809E6F7A7
:20080C00A80F080886820886830886F0120F06FAA3120F06FBA3120F06FF74012AFCE43B05
:20082C00FD8F06A80F080886820886830886F0EC1207B4A3ED1207B4A3EE1207B48A828BB1
:20084C00838FF0A80F08E61207B4850F81D00F2285820C85830D85F00E75560C755700753F
:20086C00584085085985095A850A5B850B5C9007EC1209E2AE82AF83AB0CAC0DAD0E8B8216
:20088C008C838DF0E41207B48E828F8322C00F85810FE50F24F8FF8F5CE50F24FBFF8F56F6
:2008AC00755700755840E50F24F8F8865908865A08865B9007EC1209E2AE82AF83E50F24A1
:1B08CC00FBF886030886040886058B828C838DF0E41207B48E828F83D00F2203
:200086007800E84400600A790175AF00E4F309D8FC7850E84400600C7901900001E4F0A318
:0400A600D8FCD9FAAF
:2008E700C00F85810F120115D00F2285825985835A85F05BE4F556F557F55885105C900801
:20090700E70209E2C00F85810FE50F24FBFF8F5CE4F556F557F558E50F24FBF886590886DB
:0D0927005A08865B9008E71209E2D00F2203
:20093400AF82C04CC04DC04E1209418007C04AC04B8F82221581158115810554E4B5540216
:20095400055522AF8274302FFF24C6500A74072FFF3000034307208F82020934E582FFC400
:20097400540FF582C007120957D007740F5FF582020957858211854F128550138551148569
:200994005215AA53751620EA2AFAE515235401FF8A064EFAE5122512F512E51333F513E590
:2009B4001433F514E51533F515C3EA95114008EAC39511FA431201E51614FF8F1670C885EE
:2009D400124F8513508514518515528A532285824A85834B85564C85574D85584EE4F55499
:2009F400F555AD59AE5AAF5B8D828E838FF0120F06FC74012DF559E43EF55A8F5BECFF7019
:200A140003020EE7BF25028003020EDFC201C202C203C204C205C206C207C208755D0075F5
:200A34005E00755FFFAA59AB5AAE5B8A828B838EF0120F06FFA3AA82AB838A598B5A8E5BF4
:200A5400BF25078F821209348098BF3000402DEF24C6402874FFB55F12E55E75F00AA42F64
:200A7400FC24D0F55E70C4D20280C0E55F75F00AA4FC8F05ED2C24D0F55F80AFBF2E0A74F5
:200A9400FFB55FA7755F0080A2BF6100400CEF248540075307DFD2008002C200BF20028097
:200AB4006DBF2B028063BF2D028059BF42028063BF43028068BF4403020C85BF4603020C9E
:200AD4009BBF4803020A3FBF4903020C85BF4A03020A3FBF4C028040BF4F03020C8CBF5096
:200AF40003020C1ABF5302805ABF5403020A3FBF5503020C91BF5803020C96BF5A03020ACC
:200B14003F020C9FD201020A3FD203020A3FD204020A3FD206020A3FD207020A3F30060AEF
:200B3400E55C14F9895C87078011E55C24FEFE8E5C8E018705098706198D078F8212093446
:200B5400020CA8E55C24FDFE8E5C8E01870409870509870619198C4F8D508E518C828D8355
:200B74008EF0120EEEAD82AE8374FFB55F028D5F200126C3ED955E5020E55EC39DF55EAE02
:200B94005E8E041EEC6010758220C006C005120934D005D00680EA8E5EAE5F854F828550AD
:200BB400838551F0120F06FCFF602F8E041EC374808CF063F08095F050208F82C006C005E0
:200BD400120934D005D006AA4FAB50AC510ABA00010B8A4F8B508C5180C1200103020CA89A
:200BF400C3ED955E4003020CA8E55EC39DF55EAE5E8E041EEC7003020CA6758220C0061291
:200C14000934D00680EBE55C24FDFC8C5C8C01870209870309870419198A4F8B508C51AC50
:200C340051BC800040047F438014BC600040047F50800BBC400040047F4980027F588F824D
:200C5400C00712093475823A120934758230120934758278120934D007BF4902800BBF503B
:200C7400028006855082120970854F821209708023D205755D0A801C755D088017755D0AD6
:200C94008012755D10800DD20880098F8212093480028E5E30085CE55C24FCFE8E5C8E01A2
:200CB40087020987030987040987061919198A4F8B508C518E52754F6F75500F755180854C
:200CD4004F6185506285516374012561FAE43562FCAE638A4F8C508E518561828562838578
:200CF40063F0120F06FEFF70030209F68F8212093480CCE55D70030209F675601C30062D3F
:200D1400E55C14F9895C87048C027B007C007E008A4F8B508C518E52200566AA4F7B007C12
:200D3400007E008A4F8B508C518E528054300721E55C24FCFE8E5C8E018702098703098700
:200D5400040987061919198A4F8B508C518E528030E55C24FEFE8E5C8E0187040987061965
:200D7400EE3395E0FBFA8C4F8E508B518A52200510AA4FAB507C007E008A4F8B508C518E21
:200D940052300522E55230E71BC3E4954FFAE49550FBE49551FCE49552FE8A4F8B508C51C4
:200DB4008E528002C205D209A9607E00755300855D82C006C001120987D001D00620090B64
:200DD400E553C4FCE7FB4CF7198002A7530EB209E54F45504551455270D289608E05E55E8D
:200DF4007003755E01200224200121ED04FEAC5EC3EE9C5015758220C006C005C0041209E4
:200E140034D004D005D0061C80E68C5E30050E75822DC005120934D005155E8023ED6020CC
:200E340030030E75822BC005120934D005155E800F30040C758220C005120934D005155E9D
:200E5400200126AE5E8E041EC3ED9C502F3002067B307C0080047B207C008B82C006C0051E
:200E7400120934D005D00680DCC3ED955E5008E55EC39DF55E8007755E0080028E5EA96046
:200E94008D068E051EED6026B20920090A09E7C4540FFD8D5380078705740F5DF553855392
:200EB40082C006C001120957D001D00680D42001030209F6AE5E8E051EED70030209F675F0
:1A0ED4008220C006120934D00680EB8F821209340209F685548285558322D1
:0B0F6F003C4E4F20464C4F41543E00CA
:180EEE00AA82AB83120F066003A380F8C3E5829AF582E5839BF5832215
:0D005100758163120F22E582600302004EEC
:1C0F060020F71430F6148883A88220F507E6A88375830022E280F7E49322E022FA
:040F220075820022B2
:00000001FF
