:0400000002001132B7
:03000B00020211DD
:03006A0002000E83
:03000E000200E805
:20006D0075B1677E007F01EE24FFFCEF34FFFD8C068D07EC4D70F0E5B130E7FB75B2882284
:20008D00759850758920758DDCD28E438E10438780D29943A4012275FFDE75FFAD12006D08
:2000AD0012008D43E10443E34022AF8210990280FB8F992210980280FBAF998F82C00712EC
:2000CD0000B7D0078F82222098057582FF800BC2988599821200B7859982221200A47582E2
:2000ED00201200B71201FC120202746DC0E07408C0E07480C0E0120252158115811581127A
:20010D0000C1858208758C00758A00D28C745EB5090E741AB50A09E4B50B05B50C02801CA8
:20012D00750D64750E00150D74FFB50D02150EE50D450E70F1750D64F50E80D17495C0E044
:20014D007408C0E07480C0E0120252158115811581C009C00AC00BC00C74B3C0E07408C08D
:20016D00E07480C0E0120252E58124F9F581E4F58CF58AF509F50AF50BF50C74A5B5090ED8
:20018D00741FB50A09E4B50B05B50C02801C750D64750E00150D74FFB50D02150EE50D45D3
:2001AD000E70F1750D64F50E80D174CFC0E07408C0E07480C0E0120252158115811581C00E
:2001CD0009C00AC00BC00C74B3C0E07408C0E07480C0E0120252E58124F9F581C28CE4F5AB
:2001ED008CF58AF509F50AF50BF50C0200F722D2A943A88022438E085389F0C28C758A00D4
:20020D00758C0022C0E0C0D00509E4B5090C050AB50A07050BB50B02050CC28DD0D0D0E06B
:01022D00329E
:20086D0048697420616E79206B6579206F6E20746865206B6579626F61726420746F207310
:20088D0074617274200D0A000D0A322E35207365636F6E647320686176652070617373659E
:2008AD00642E200D0A005468657265207765726520256C64206F766572666C6F7773200D4E
:1C08CD000A0033207365636F6E64732068617665207061737365642E200D0A00FA
:06004000E478FFF6D8FD94
:20001E007900E94400601B7A009008F4780175AF00E493F2A308B8000205AFD9F4DAF2756E
:02003E00AFFF12
:200046007800E84400600A790175AF00E4F309D8FC7800E84400600C7900900001E4F0A3A9
:04006600D8FCD9FAEF
:20022E00C0108581101200B7D0102285823185833285F033E4F52EF52FF530850F3490023B
:20024E002E020329C010858110E51024FBFF8F34E4F52EF52FF530E51024FBF886310886D7
:0D026E003208863390022E120329D0102290
:20027B00AF82C024C025C0261202888007C022C0238F8222158115811581052CE4B52C02AE
:20029B00052D22AF8274302FFF24C6500A74072FFF3000034307208F8202027BE582FFC4A8
:2002BB00540FF582C00712029ED007740F5FF58202029E8582118527128528138529148521
:2002DB002A15AA2B751620EA2AFAE515235401FF8A064EFAE5122512F512E51333F513E5A0
:2002FB001433F514E51533F515C3EA95114008EAC39511FA431201E51614FF8F1670C885AE
:20031B00122785132885142985152A8A2B22858222858323852E24852F25853026E4F52C88
:20033B00F52DAD31AE32AF338D828E838FF012084DFC74012DF531E43EF5328F33ECFF70B0
:20035B000302082EBF25028003020826C201C202C203C204C205C206C207C208753500755B
:20037B0036007537FFAA31AB32AE338A828B838EF012084DFFA3AA82AB838A318B328E33B4
:20039B00BF25078F8212027B8098BF3000402DEF24C6402874FFB53712E53675F00AA42F34
:2003BB00FC24D0F53670C4D20280C0E53775F00AA4FC8F05ED2C24D0F53780AFBF2E0A742D
:2003DB00FFB537A775370080A2BF6100400CEF248540075307DFD2008002C200BF200280A7
:2003FB006DBF2B028063BF2D028059BF42028063BF43028068BF44030205CCBF4603020525
:20041B00E2BF4803020386BF49030205CCBF4A03020386BF4C028040BF4F030205D3BF500E
:20043B0003020561BF5302805ABF5403020386BF55030205D8BF58030205DDBF5A03020392
:20045B00860205E6D201020386D203020386D204020386D206020386D20702038630060AE8
:20047B00E53414F9893487078011E53424FEFE8E348E018705098706198D078F8212027B66
:20049B000205EFE53424FDFE8E348E01870409870509870619198C278D288E298C828D839D
:2004BB008EF0120835AD82AE8374FFB537028D37200126C3ED95365020E536C39DF536AE49
:2004DB00368E041EEC6010758220C006C00512027BD005D00680EA8E36AE378527828528F5
:2004FB00838529F012084DFCFF602F8E041EC374808CF063F08095F050208F82C006C00588
:20051B0012027BD005D006AA27AB28AC290ABA00010B8A278B288C2980C12001030205EFC9
:20053B00C3ED953640030205EFE536C39DF536AE368E041EEC70030205ED758220C0061270
:20055B00027BD00680EBE53424FDFC8C348C01870209870309870419198A278B288C29AC98
:20057B0029BC800040047F438014BC600040047F50800BBC400040047F4980027F588F8235
:20059B00C00712027B75823A12027B75823012027B75827812027BD007BF4902800BBF50FB
:2005BB000280068528821202B78527821202B78023D20575350A801C753508801775350ADE
:2005DB008012753510800DD20880098F8212027B80028E3630085CE53424FCFE8E348E01C2
:2005FB0087020987030987040987061919198A278B288C298E2A7527E975280875298085B1
:20061B00273985283A85293B74012539FAE4353AFCAE3B8A278C288E29853982853A838567
:20063B003BF012084DFEFF700302033D8F8212027B80CCE535700302033D75381C30062D74
:20065B00E53414F9893487048C027B007C007E008A278B288C298E2A200566AA277B007CEA
:20067B00007E008A278B288C298E2A8054300721E53424FCFE8E348E0187020987030987B0
:20069B00040987061919198A278B288C298E2A8030E53424FEFE8E348E0187040987061915
:2006BB00EE3395E0FBFA8C278E288B298A2A200510AA27AB287C007E008A278B288C298E49
:2006DB002A300522E52A30E71BC3E49527FAE49528FBE49529FCE4952AFE8A278B288C29EC
:2006FB008E2A8002C205D209A9387E00752B00853582C006C0011202CED001D00620090B84
:20071B00E52BC4FCE7FB4CF7198002A72B0EB209E52745284529452A70D289388E05E5368C
:20073B007003753601200224200121ED04FEAC36C3EE9C5015758220C006C005C0041202FA
:20075B007BD004D005D0061C80E68C3630050E75822DC00512027BD00515368023ED602055
:20077B0030030E75822BC00512027BD0051536800F30040C758220C00512027BD00515362D
:20079B00200126AE368E041EC3ED9C502F3002067B307C0080047B207C008B82C006C00506
:2007BB0012027BD005D00680DCC3ED95365008E536C39DF536800775360080028E36A938B6
:2007DB008D068E051EED6026B20920090A09E7C4540FFD8D2B80078705740F5DF52B852BCA
:2007FB0082C006C00112029ED001D00680D420010302033DAE368E051EED700302033D7516
:1A081B008220C00612027BD00680EB8F8212027B02033D852C82852D83221F
:0B08E9003C4E4F20464C4F41543E0057
:18083500AA82AB8312084D6003A380F8C3E5829AF582E5839BF5832294
:0D00110075813B120869E582600302000E54
:1C084D0020F71430F6148883A88220F507E6A88375830022E280F7E49322E022BA
:040869007582002272
:00000001FF
