:040000000200513277
:01000B0032C2
:0100130032BA
:01001B0032B2
:0100230032AA
:01002B0032A2
:01003300329A
:01003B003292
:01004300328A
:03004B000201A50A
:1A00AA007508C875090A750AEE750B07750CAC750D0DE4F50EF50F02004E84
:03004E0002013F6D
:2000C40075B1677E007F01EE24FFFCEF34FFFD8C068D07EC4D70F0E5B130E7FB75B288222D
:2000E400759850758920758DDCD28E438E10438780D29943A4012275FFDE75FFAD1200C45A
:200104001200E443E10443E34022AF8210990280FB8F992210980280FBAF998F82C007123D
:20012400010ED0078F82222098057582FF800BC29885998212010E859982221200FB758283
:200144002012010E12018E120192120196748CC0E07408C0E07480C0E0120271158115816A
:20016400158185080E85090FE4F510F51114C3950EF5EC74FF950FF5FCC3E510944BE511CE
:20018400940040F51201C680FB2243A5042275E1272275D98175DCC275D84043E608D2AF4E
:2001A40022C0E0C0D010DF02801075E9FF75F96F0510E4B510070511800353D840D0D0D0F5
:2001C400E03274B6C0E07408C0E07480C0E0120271158115811581120118858212742BB5B0
:2001E400121E74C8250EF50EE4350FF50FC3E50C950EE50D950F502A850C0E850D0F8022E4
:20020400742DB5121DE50E2438F50EE50F34FFF50FC3E50E950AE50F950B5006850A0E8577
:200224000B0FC00EC00F74CEC0E07408C0E07480C0E0120271E58124FBF58174FFC3950E18
:09024400F5EC74FF950FF5FC22A6
:20088C00456D62656464656420436F6E74726F6C2050756C736577696474682043616C695F
:2008AC0062726174696F6E0A0D00506C7573206F72204D696E757320706C656173652E0D80
:0B08CC000A0050573A2025750A0D0065
:06008000E478FFF6D8FD54
:20005E007900E94400601B7A009008E2780175AF00E493F2A308B8000205AFD9F4DAF27540
:02007E00AFFFD2
:200086007800E84400600A790175AF00E4F309D8FC7800E84400600C7900900001E4F0A369
:0400A600D8FCD9FAAF
:20024D00C01685811612010ED0162285823185833285F033E4F52EF52FF5308515349002AC
:20026D004D020348C016858116E51624FBFF8F34E4F52EF52FF530E51624FBF88631088662
:0D028D003208863390024D120348D016222D
:20029A00AF82C024C025C0261202A78007C022C0238F8222158115811581052CE4B52C0270
:2002BA00052D22AF8274302FFF24C6500A74072FFF3000034307208F8202029AE582FFC46A
:2002DA00540FF582C0071202BDD007740F5FF5820202BD85821785271885281985291A85AC
:2002FA002A1BAA2B751C20EA2AFAE51B235401FF8A064EFAE5182518F518E51933F519E551
:20031A001A33F51AE51B33F51BC3EA95174008EAC39517FA431801E51C14FF8F1C70C88558
:20033A001827851928851A29851B2A8A2B22858222858323852E24852F25853026E4F52C51
:20035A00F52DAD31AE32AF338D828E838FF012086CFC74012DF531E43EF5328F33ECFF7072
:20037A000302084DBF25028003020845C201C202C203C204C205C206C207C20875350075FE
:20039A0036007537FFAA31AB32AE338A828B838EF012086CFFA3AA82AB838A318B328E3376
:2003BA00BF25078F8212029A8098BF3000402DEF24C6402874FFB53712E53675F00AA42FF6
:2003DA00FC24D0F53670C4D20280C0E53775F00AA4FC8F05ED2C24D0F53780AFBF2E0A740E
:2003FA00FFB537A775370080A2BF6100400CEF248540075307DFD2008002C200BF20028088
:20041A006DBF2B028063BF2D028059BF42028063BF43028068BF44030205EBBF46030206E5
:20043A0001BF48030203A5BF49030205EBBF4A030203A5BF4C028040BF4F030205F2BF5054
:20045A0003020580BF5302805ABF54030203A5BF55030205F7BF58030205FCBF5A030203F7
:20047A00A5020605D2010203A5D2030203A5D2040203A5D2060203A5D2070203A530060AEF
:20049A00E53414F9893487078011E53424FEFE8E348E018705098706198D078F8212029A28
:2004BA0002060EE53424FDFE8E348E01870409870509870619198C278D288E298C828D835E
:2004DA008EF0120854AD82AE8374FFB537028D37200126C3ED95365020E536C39DF536AE0B
:2004FA00368E041EEC6010758220C006C00512029AD005D00680EA8E36AE378527828528B7
:20051A00838529F012086CFCFF602F8E041EC374808CF063F08095F050208F82C006C00549
:20053A0012029AD005D006AA27AB28AC290ABA00010B8A278B288C2980C120010302060E6B
:20055A00C3ED9536400302060EE536C39DF536AE368E041EEC700302060C758220C0061211
:20057A00029AD00680EBE53424FDFC8C348C01870209870309870419198A278B288C29AC5A
:20059A0029BC800040047F438014BC600040047F50800BBC400040047F4980027F588F8216
:2005BA00C00712029A75823A12029A75823012029A75827812029AD007BF4902800BBF5060
:2005DA000280068528821202D68527821202D68023D20575350A801C753508801775350A81
:2005FA008012753510800DD20880098F8212029A80028E3630085CE53424FCFE8E348E0184
:20061A0087020987030987040987061919198A278B288C298E2A7527D775280875298085A3
:20063A00273985283A85293B74012539FAE4353AFCAE3B8A278C288E29853982853A838548
:20065A003BF012086CFEFF700302035C8F8212029A80CCE535700302035C75384130062DB4
:20067A00E53414F9893487048C027B007C007E008A278B288C298E2A200566AA277B007CCB
:20069A00007E008A278B288C298E2A8054300721E53424FCFE8E348E018702098703098791
:2006BA00040987061919198A278B288C298E2A8030E53424FEFE8E348E01870409870619F6
:2006DA00EE3395E0FBFA8C278E288B298A2A200510AA27AB287C007E008A278B288C298E2A
:2006FA002A300522E52A30E71BC3E49527FAE49528FBE49529FCE4952AFE8A278B288C29CD
:20071A008E2A8002C205D209A9387E00752B00853582C006C0011202EDD001D00620090B45
:20073A00E52BC4FCE7FB4CF7198002A72B0EB209E52745284529452A70D289388E05E5366D
:20075A007003753601200224200121ED04FEAC36C3EE9C5015758220C006C005C0041202DB
:20077A009AD004D005D0061C80E68C3630050E75822DC00512029AD00515368023ED6020F8
:20079A0030030E75822BC00512029AD0051536800F30040C758220C00512029AD0051536D0
:2007BA00200126AE368E041EC3ED9C502F3002067B307C0080047B207C008B82C006C005E7
:2007DA0012029AD005D00680DCC3ED95365008E536C39DF536800775360080028E36A93878
:2007FA008D068E051EED6026B20920090A09E7C4540FFD8D2B80078705740F5DF52B852BAB
:20081A0082C006C0011202BDD001D00680D420010302035CAE368E051EED700302035C7599
:1A083A008220C00612029AD00680EB8F8212029A02035C852C82852D8322A3
:0B08D7003C4E4F20464C4F41543E0069
:18085400AA82AB8312086C6003A380F8C3E5829AF582E5839BF5832256
:0D005100758141120888E582600302004EAF
:1C086C0020F71430F6148883A88220F507E6A88375830022E280F7E49322E0229B
:040888007582002253
:00000001FF
