:040000000200513277
:01000B0032C2
:0100130032BA
:01001B0032B2
:0100230032AA
:01002B0032A2
:01003300329A
:01003B003292
:01004300328A
:03004B0002075455
:0300AA0002004E03
:03004E000205B3F5
:2000AD0075B1677E007F01EE24FFFCEF34FFFD8C068D07EC4D70F0E5B130E7FB75B2882244
:2000CD00759850758920758DDCD28E438E10438780D29943A4012275FFDE75FFAD1200AD88
:2000ED001200CD43E10443E34022AF8210990280FB8F992210980280FBAF998F82C007126C
:20010D0000F7D0078F82222098057582FF800BC2988599821200F785998222C029858129B6
:20012D00E52924FBF886820886830886F0120EEFE5828583F045F070028062E52924FBFFD3
:20014D008F25E52924FBF8862208862308862490000175F00012085D90000175F000120E2B
:20016D00EFAE827F00C3EF9E501FEF2401F582E43400F583E0FDBD0A0DEF2401F582E434A6
:20018D0000F583740DF00F80DC7511017512007513007510008E147582C6120439D029221A
:2001AD00750B0074C0250B401775160B7517007518407515007519017582C61204B380E306
:2001CD00750C0C75110C7512007513407510007514017582C61204392275160E75170075CD
:2001ED0018407515017519027582C61204B374FFB50E05758200805F7F008F068EF005F061
:20020D007C017D008006EC2CFCED33FDD5F0F7AA0E7B00EA5204EB5205EC4D600774312F3B
:20022D00F58280330E8E07BE080040D0E50F30E0057582398021E50F30E10575822A801772
:20024D00E50F30E205758230800DE50F30E30575822380037582FF22AF82E4FDFEEF701D85
:20026D00C006C0057427C0E0740FC0E07480C0E0120128158115811581D005D006C006C0C6
:20028D00057408C0E0E4C0E07408C0E0E4C0E07408C0E0E4C0E07408C0E0E4C0E07408C090
:2002AD00E0E4C0E0743DC0E0740FC0E07480C0E0120128E58124F3F58190A12075F007E4F6
:2002CD001203D4D005D0067F00C007C006C0051201E6AC82D005D006D0078C03BCFF028037
:2002ED0003BB2A17902710E4F5F0C007C006C0051203D4D005D006D00780CEBB232AC00689
:20030D00C0051201E6AC82D005D006BC2313902710E4F5F0C006C0051203D4D005D0068018
:20032D00DD8D828E830203D38B027C00C007C006C005C004C003C002C002C004744DC0E050
:20034D00740FC0E07480C0E0120128E58124FBF581D002D003D004D005D0068D458E469049
:20036D00000AC004C003C0021207D0A882A983D002D003D004D007EA28F8EC39F9E824D08A
:20038D00FDE934FFFEC007C006C005C0031201E6AC82D003D005D006D007ECB5031B902732
:2003AD0010E4F5F0C007C006C005C0031203D4D003D005D006D00780CC0FBF050050030290
:2003CD0002D68D828E8322AC82AD83AEF0FF780079007A007B00C3E89CE99DEA9EEB9F50E6
:2003ED000F08B8000909B900050ABA00E90B80E62220C7FDD2C530C3FDC2C5C2C322858271
:20040D00C210C30280FB228582C2D2C410C30280FB2230C3FD85C282C2C32230C3FDAFC209
:20042D00C2C3D2C410C30280FB8F8222AF82C2AFC0071203FED00774FE5FF58212040B85D0
:20044D00108212040B7F00AD147E001DBDFF011E8F037C00C3EB9DEC64808EF063F0809517
:20046D00F0501FEF2511FCE43512FDAE138C828D838EF0120F07F582C00712040BD0070FFD
:20048D0080C5AE147F001EBEFF011FEE2511FEEF3512FFAD138E828F838DF0120F07F58279
:2004AD00120414D2AF22AF82C2AFC0071203FED00774FE5FF582C00712040B8515821204AD
:2004CD00141203FED00774014FF58212040B7F00AD197E001DBDFF011E8F037C00C3EB9DA1
:2004ED00EC64808EF063F08095F0502ED2C2EF2516FCE43517FDAE18C007C006C005C00408
:20050D0012041FAB82D004D005D006D0078C828D838EF0EB1207B50F80B6C2C2AE197F00B2
:20052D001EBEFF011FEE2516FEEF3517FFAD18C007C006C005120428AC82D005D006D0074D
:20054D008E828F838DF0EC1207B5D2AF22750823750900750910750A0075110875120075DD
:20056D001340751020751401758230120439227508047511087512007513407510237514C5
:20058D000175823A12043975086B750900750A007511087512007513407510207514017567
:2005AD00823A120439221200E412073A12073E12074712074E75820D1200F77450C0E074B5
:2005CD000FC0E07480C0E012090C158115811581E4F51AF51BC3E51A9401E51B940040F5BF
:2005ED001201AD7459C0E0740FC0E07480C0E01201281581158115811201E6AF82C007120A
:20060D000793D007BFFF0280EFC0071201E6AE82D007BEFFF4C0071201ADD0078F057E0045
:20062D00C007C006C005C005C006C005C006748DC0E0740FC0E07480C0E0120128E5812428
:20064D00F9F581D005D006C005C006C005C00674B9C0E0740FC0E07480C0E012090CE5814C
:20066D0024F9F581D007EF7019C00774D7C0E0740FC0E07480C0E012090C15811581158139
:20068D00D007C0071201E6AE82C006120793D006D007BEFF0280EBC007C0061201E6AD8288
:2006AD00D006D007BDFFF0C007C0061201ADD006D007EF24D075F00AA4FFEE24D02FFFFCD9
:2006CD007D007B00C007C006C003C004C005C006C003C006C00374FCC0E0740FC0E0748003
:2006ED00C0E0120128E58124F7F581D003D006C006C003C006C00374B9C0E0740FC0E074FC
:20070D0080C0E012090CE58124F9F581D007EF600302060574D7C0E0740FC0E07480C0E0B4
:20072D0012090C1581158115810206052275E1072243A80243E608D2AF2275D98143D8402A
:20074D002275CF93D2C622C0E0C0D010DF02802E051EE4B51E02051F051CE4B51C02051D10
:20076D0075E90075F970C37432951CE4951D5011E4F51CF51D051AB51A07051B800353D855
:20078D00C0D0D0D0E032E4F51CF51DC3E51C9406E51D940040F522E4F51CF51DC3E51C9459
:0807AD0032E51D940040F52225
:200F27000A54797065206469676974733B20656E6420772F2300202020202025632563250A
:200F47006325632563002563000A53746172740D0A0043616C6962726174696F6E3A0A486C
:200F6700656C6C6F20776F726C64210A3031325F3334355F3637383A0A6162632064656600
:200F8700206768696A00596F7572206B6579207761733A0A2025632C20203D20486578200B
:200FA70025580A20707265737320616E6F74686572000A0D596F7572206B657920776173AB
:200FC7003A2025632C20203D20486578202558002020202A2A5769726520436F6E6E6563DC
:200FE70074696F6E2F58425230204572726F722A2A20202000596F7572206B6579207761F7
:20100700733A0A2025632C20203D204865782025580A20546F74616C207761733A20256463
:021027000A00BD
:06008000E478FFF6D8FD54
:20005E007900E94400601B7A00901034785175AF00E493F2A308B8000205AFD9F4DAF27596
:02007E00AFFFD2
:1B07B50020F71130F6138883A88220F509F6A8837583002280FEF280F5F02243
:1D07D000E5828545F0A4C582C0F08546F0A4D0F025F0C5838545F0A42583F5832234
:2007ED00C029858129C082058105810581E52924FBF8A9290909E6F70809E6F70809E6F73E
:20080D00A829080886820886830886F0120F07FAA3120F07FBA3120F07FF74012AFCE43BE7
:20082D00FD8F06A829080886820886830886F0EC1207B5A3ED1207B5A3EE1207B58A828B93
:20084D00838FF0A82908E61207B5852981D0292285822685832785F02875372675380075C5
:20086D00394085223A85233B85243C85253D9007ED1209E3AE82AF83AB26AC27AD288B82F8
:20088D008C838DF0E41207B58E828F8322C029858129E52924F8FF8F3DE52924FBFF8F37CA
:2008AD00753800753940E52924F8F8863A08863B08863C9007ED1209E3AE82AF83E5292405
:1B08CD00FBF886030886040886058B828C838DF0E41207B58E828F83D02922E7
:200086007800E84400600A790175AF00E4F309D8FC7850E84400600C7901900001E4F0A318
:0400A600D8FCD9FAAF
:2008E800C0298581291200F7D0292285823A85833B85F03CE4F537F538F539852A3D900890
:20090800E80209E3C029858129E52924FBFF8F3DE4F537F538F539E52924FBF8863A08860B
:0D0928003B08863C9008E81209E3D0292224
:20093500AF82C02DC02EC02F1209428007C02BC02C8F82221581158115810535E4B53502ED
:20095500053622AF8274302FFF24C6500A74072FFF3000034307208F82020935E582FFC41D
:20097500540FF582C007120958D007740F5FF58202095885824585304685314785324885F3
:200995003349AA34754A20EA2AFAE549235401FF8A064EFAE5462546F546E54733F547E52D
:2009B5004833F548E54933F549C3EA95454008EAC39545FA434601E54A14FF8F4A70C88519
:2009D50046308547318548328549338A342285822B85832C85372D85382E85392FE4F5357A
:2009F500F536AD3AAE3BAF3C8D828E838FF0120F07FC74012DF53AE43EF53B8F3CECFF70F0
:200A150003020EE8BF25028003020EE0C201C202C203C204C205C206C207C208753E007511
:200A35003F007540FFAA3AAB3BAE3C8A828B838EF0120F07FFA3AA82AB838A3A8B3B8E3CEA
:200A5500BF25078F821209358098BF3000402DEF24C6402874FFB54012E53F75F00AA42FA0
:200A7500FC24D0F53F70C4D20280C0E54075F00AA4FC8F05ED2C24D0F54080AFBF2E0A7451
:200A9500FFB540A775400080A2BF6100400CEF248540075307DFD2008002C200BF200280D4
:200AB5006DBF2B028063BF2D028059BF42028063BF43028068BF4403020C86BF4603020C9C
:200AD5009CBF4803020A40BF4903020C86BF4A03020A40BF4C028040BF4F03020C8DBF5090
:200AF50003020C1BBF5302805ABF5403020A40BF5503020C92BF5803020C97BF5A03020AC7
:200B150040020CA0D201020A40D203020A40D204020A40D206020A40D207020A4030060AE7
:200B3500E53D14F9893D87078011E53D24FEFE8E3D8E018705098706198D078F82120935C0
:200B5500020CA9E53D24FDFE8E3D8E01870409870509870619198C308D318E328C828D83EE
:200B75008EF0120EEFAD82AE8374FFB540028D40200126C3ED953F5020E53FC39DF53FAE9B
:200B95003F8E041EEC6010758220C006C005120935D005D00680EA8E3FAE40853082853146
:200BB500838532F0120F07FCFF602F8E041EC374808CF063F08095F050208F82C006C005FD
:200BD500120935D005D006AA30AB31AC320ABA00010B8A308B318C3280C1200103020CA951
:200BF500C3ED953F4003020CA9E53FC39DF53FAE3F8E041EEC7003020CA7758220C006120A
:200C15000935D00680EBE53D24FDFC8C3D8C01870209870309870419198A308B318C32ACE9
:200C350032BC800040047F438014BC600040047F50800BBC400040047F4980027F588F826B
:200C5500C00712093575823A120935758230120935758278120935D007BF4902800BBF5036
:200C75000280068531821209718530821209718023D205753E0A801C753E088017753E0A6E
:200C95008012753E10800DD20880098F8212093580028E3F30085CE53D24FCFE8E3D8E011C
:200CB50087020987030987040987061919198A308B318C328E337530297531107532808569
:200CD500304285314385324474012542FAE43543FCAE448A308C318E328542828543838529
:200CF50044F0120F07FEFF70030209F78F8212093580CCE53E70030209F775415030062D63
:200D1500E53D14F9893D87048C027B007C007E008A308B318C328E33200566AA307B007CEA
:200D3500007E008A308B318C328E338054300721E53D24FCFE8E3D8E0187020987030987B9
:200D5500040987061919198A308B318C328E338030E53D24FEFE8E3D8E018704098706191E
:200D7500EE3395E0FBFA8C308E318B328A33200510AA30AB317C007E008A308B318C328E37
:200D950033300522E53330E71BC3E49530FAE49531FBE49532FCE49533FE8A308B318C32DA
:200DB5008E338002C205D209A9417E00753400853E82C006C001120988D001D00620090BDE
:200DD500E534C4FCE7FB4CF7198002A7340EB209E53045314532453370D289418E05E53F84
:200DF5007003753F01200224200121ED04FEAC3FC3EE9C5015758220C006C005C004120921
:200E150035D004D005D0061C80E68C3F30050E75822DC005120935D005153F8023ED602007
:200E350030030E75822BC005120935D005153F800F30040C758220C005120935D005153FD8
:200E5500200126AE3F8E041EC3ED9C502F3002067B307C0080047B207C008B82C006C0053C
:200E7500120935D005D00680DCC3ED953F5008E53FC39DF53F8007753F0080028E3FA941FE
:200E95008D068E051EED6026B20920090A09E7C4540FFD8D3480078705740F5DF5348534EE
:200EB50082C006C001120958D001D00680D42001030209F7AE3F8E051EED70030209F7750B
:1A0ED5008220C006120935D00680EB8F821209350209F7853582853683220B
:0B1029003C4E4F20464C4F41543E000F
:180EEF00AA82AB83120F076003A380F8C3E5829AF582E5839BF5832213
:0D005100758150120F23E582600302004EFE
:1C0F070020F71430F6148883A88220F507E6A88375830022E280F7E49322E022F9
:040F230075820022B1
:00000001FF
