:040000000200513277
:01000B0032C2
:0100130032BA
:01001B0032B2
:0100230032AA
:01002B0032A2
:01003300329A
:01003B003292
:01004300328A
:03004B0002064466
:2000AA007536C875370A7538EE753907753AAC753B0DE4F53CF53DF545F5467547E002004B
:0100CA004EE7
:03004E000205D1D7
:2000CB0075B1677E007F01EE24FFFCEF34FFFD8C068D07EC4D70F0E5B130E7FB75B2882226
:2000EB00759850758920758DDCD28E438E10438780D29943A4012275FFDE75FFAD1200CB4C
:20010B001200EB43E10443E34022AF8210990280FB8F992210980280FBAF998F82C007122F
:20012B000115D0078F82222098057582FF800BC29885998212011585998222C00F85810F8E
:20014B00E50F24FBF886820886830886F0120E0EE5828583F045F070028062E50F24FBFFCA
:20016B008F0BE50F24FBF8860808860908860A90000175F00012077C90000175F000120E71
:20018B000EAE827F00C3EF9E501FEF2401F582E43400F583E0FDBD0A0DEF2401F582E43469
:2001AB0000F583740DF00F80DC752D01752E00752F00752C008E307582C6120457D00F226C
:2001CB0075270074C0252740177532277533007534407531007535017582C61204D180E3EA
:2001EB0075280C752D28752E00752F40752C007530017582C61204572275322A7533007579
:20020B0034407531017535027582C61204D174FFB52A05758200805F7F008F068EF005F0B4
:20022B007C017D008006EC2CFCED33FDD5F0F7AA2A7B00EA5204EB5205EC4D600774312F01
:20024B00F58280330E8E07BE080040D0E52B30E0057582398021E52B30E10575822A80171C
:20026B00E52B30E205758230800DE52B30E30575822380037582FF22AF82E4FDFEEF701D2F
:20028B00C006C0057446C0E0740EC0E07480C0E0120146158115811581D005D006C006C06C
:2002AB00057408C0E0E4C0E07408C0E0E4C0E07408C0E0E4C0E07408C0E0E4C0E07408C072
:2002CB00E0E4C0E0745CC0E0740EC0E07480C0E0120146E58124F3F58190A12075F007E49C
:2002EB001203F2D005D0067F00C007C006C005120204AC82D005D006D0078C03BCFF0280DC
:20030B0003BB2A17902710E4F5F0C007C006C0051203F2D005D006D00780CEBB232AC0064C
:20032B00C005120204AC82D005D006BC2313902710E4F5F0C006C0051203F2D005D00680BD
:20034B00DD8D828E830203F18B027C00C007C006C005C004C003C002C002C004746CC0E0F5
:20036B00740EC0E07480C0E0120146E58124FBF581D002D003D004D005D0068D118E129076
:20038B00000AC004C003C0021206EFA882A983D002D003D004D007EA28F8EC39F9E824D04E
:2003AB00FDE934FFFEC007C006C005C003120204AC82D003D005D006D007ECB5031B9027F5
:2003CB0010E4F5F0C007C006C005C0031203F2D003D005D006D00780CC0FBF050050030254
:2003EB0002F48D828E8322AC82AD83AEF0FF780079007A007B00C3E89CE99DEA9EEB9F50AA
:20040B000F08B8000909B900050ABA00E90B80E62220C7FDD2C530C3FDC2C5C2C322858252
:20042B00C210C30280FB228582C2D2C410C30280FB2230C3FD85C282C2C32230C3FDAFC2EB
:20044B00C2C3D2C410C30280FB8F8222AF82C2AFC00712041CD00774FE5FF5821204298575
:20046B002C821204297F00AD307E001DBDFF011E8F037C00C3EB9DEC64808EF063F08095A3
:20048B00F0501FEF252DFCE4352EFDAE2F8C828D838EF0120E26F582C007120429D0070F4F
:2004AB0080C5AE307F001EBEFF011FEE252DFEEF352EFFAD2F8E828F838DF0120E26F582CD
:2004CB00120432D2AF22AF82C2AFC00712041CD00774FE5FF582C007120429853182120418
:2004EB003212041CD00774014FF5821204297F00AD357E001DBDFF011E8F037C00C3EB9D0C
:20050B00EC64808EF063F08095F0502ED2C2EF2532FCE43533FDAE34C007C006C005C00495
:20052B0012043DAB82D004D005D006D0078C828D838EF0EB1206D40F80B6C2C2AE357F003C
:20054B001EBEFF011FEE2532FEEF3533FFAD34C007C006C005120446AC82D005D006D007BD
:20056B008E828F838DF0EC1206D4D2AF22752223752300752310752400752D22752E0075E7
:20058B002F40752C2075300175823012045722752204752D22752E00752F40752C23753075
:2005AB000175823A12045775226B752300752400752D22752E00752F40752C207530017537
:2005CB00823A1204572212010275822012011512062712062B12063512062F746FC0E07464
:2005EB000EC0E07480C0E012082B158115811581E54260FC12066B85824385834475420054
:20060B00C043C0447481C0E0740EC0E07480C0E012082BE58124FBF58180D52243A50422B8
:20062B0075E1272275CF93D2C62275D98175DCC275D84043E608D2AF22C0E0C0D010DF021B
:20064B00801675E9FF75F96F054174FC2541500B754201754100800353D840D0D0D0E0326A
:20066B007532487533007534407531027535028547821204D1AF487E00AC497D00EC4EF550
:20068B0045ED4FF546AE497F00AC487D00C006C007C004C005748CC0E0740EC0E07480C020
:2006AB00E012082BE58124F9F581754851752D48752E00752F40752C0075300185478212EB
:0906CB000457854582854683220F
:200E46000A54797065206469676974733B20656E6420772F230020202020202563256325EC
:200E660063256325630025630041696E27742074686973206E6561740A0D0052616E67651A
:140E86003A2025692000313A20256920323A2025690D0A00E6
:06008000E478FFF6D8FD54
:20005E007900E94400601B7A00900EA5785175AF00E493F2A308B8000205AFD9F4DAF27527
:02007E00AFFFD2
:1B06D40020F71130F6138883A88220F509F6A8837583002280FEF280F5F02225
:1D06EF00E5828511F0A4C582C0F08512F0A4D0F025F0C5838511F0A42583F58322B2
:20070C00C00F85810FC082058105810581E50F24FBF8A90F0909E6F70809E6F70809E6F787
:20072C00A80F080886820886830886F0120E26FAA3120E26FBA3120E26FF74012AFCE43B89
:20074C00FD8F06A80F080886820886830886F0EC1206D4A3ED1206D4A3EE1206D48A828B35
:20076C00838FF0A80F08E61206D4850F81D00F2285820C85830D85F00E75560C7557007501
:20078C00584085085985095A850A5B850B5C90070C120902AE82AF83AB0CAC0DAD0E8B82B7
:2007AC008C838DF0E41206D48E828F8322C00F85810FE50F24F8FF8F5CE50F24FBFF8F56B8
:2007CC00755700755840E50F24F8F8865908865A08865B90070C120902AE82AF83E50F2442
:1B07EC00FBF886030886040886058B828C838DF0E41206D48E828F83D00F22C5
:200086007800E84400600A790175AF00E4F309D8FC7850E84400600C7901900001E4F0A318
:0400A600D8FCD9FAAF
:20080700C00F85810F120115D00F2285825985835A85F05BE4F556F557F55885105C9008E1
:2008270007020902C00F85810FE50F24FBFF8F5CE4F556F557F558E50F24FBF8865908867C
:0D0847005A08865B900807120902D00F22A4
:20085400AF82C04CC04DC04E1208618007C04AC04B8F82221581158115810554E4B55402D8
:20087400055522AF8274302FFF24C6500A74072FFF3000034307208F82020854E582FFC4C2
:20089400540FF582C007120877D007740F5FF582020877858211854F12855013855114850C
:2008B4005215AA53751620EA2AFAE515235401FF8A064EFAE5122512F512E51333F513E571
:2008D4001433F514E51533F515C3EA95114008EAC39511FA431201E51614FF8F1670C885CF
:2008F400124F8513508514518515528A532285824A85834B85564C85574D85584EE4F5547A
:20091400F555AD59AE5AAF5B8D828E838FF0120E26FC74012DF559E43EF55A8F5BECFF70DA
:2009340003020E07BF25028003020DFFC201C202C203C204C205C206C207C208755D007597
:200954005E00755FFFAA59AB5AAE5B8A828B838EF0120E26FFA3AA82AB838A598B5A8E5BB6
:20097400BF25078F821208548098BF3000402DEF24C6402874FFB55F12E55E75F00AA42F26
:20099400FC24D0F55E70C4D20280C0E55F75F00AA4FC8F05ED2C24D0F55F80AFBF2E0A74D6
:2009B400FFB55FA7755F0080A2BF6100400CEF248540075307DFD2008002C200BF20028078
:2009D4006DBF2B028063BF2D028059BF42028063BF43028068BF4403020BA5BF4603020B61
:2009F400BBBF480302095FBF4903020BA5BF4A0302095FBF4C028040BF4F03020BACBF50DB
:200A140003020B3ABF5302805ABF540302095FBF5503020BB1BF5803020BB6BF5A03020931
:200A34005F020BBFD20102095FD20302095FD20402095FD20602095FD20702095F30060AF6
:200A5400E55C14F9895C87078011E55C24FEFE8E5C8E018705098706198D078F8212085408
:200A7400020BC8E55C24FDFE8E5C8E01870409870509870619198C4F8D508E518C828D8317
:200A94008EF0120E0EAD82AE8374FFB55F028D5F200126C3ED955E5020E55EC39DF55EAEC3
:200AB4005E8E041EEC6010758220C006C005120854D005D00680EA8E5EAE5F854F8285506F
:200AD400838551F0120E26FCFF602F8E041EC374808CF063F08095F050208F82C006C005A2
:200AF400120854D005D006AA4FAB50AC510ABA00010B8A4F8B508C5180C1200103020BC83D
:200B1400C3ED955E4003020BC8E55EC39DF55EAE5E8E041EEC7003020BC6758220C0061233
:200B34000854D00680EBE55C24FDFC8C5C8C01870209870309870419198A4F8B508C51AC12
:200B540051BC800040047F438014BC600040047F50800BBC400040047F4980027F588F822E
:200B7400C00712085475823A120854758230120854758278120854D007BF4902800BBF50A0
:200B9400028006855082120890854F821208908023D205755D0A801C755D088017755D0A79
:200BB4008012755D10800DD20880098F8212085480028E5E30085CE55C24FCFE8E5C8E0164
:200BD40087020987030987040987061919198A4F8B508C518E52754F9A75500E7551808503
:200BF4004F6185506285516374012561FAE43562FCAE638A4F8C508E518561828562838559
:200C140063F0120E26FEFF70030209168F8212085480CCE55D700302091675601C30062DA1
:200C3400E55C14F9895C87048C027B007C007E008A4F8B508C518E52200566AA4F7B007CF3
:200C5400007E008A4F8B508C518E528054300721E55C24FCFE8E5C8E0187020987030987E1
:200C7400040987061919198A4F8B508C518E528030E55C24FEFE8E5C8E0187040987061946
:200C9400EE3395E0FBFA8C4F8E508B518A52200510AA4FAB507C007E008A4F8B508C518E02
:200CB40052300522E55230E71BC3E4954FFAE49550FBE49551FCE49552FE8A4F8B508C51A5
:200CD4008E528002C205D209A9607E00755300855D82C006C0011208A7D001D00620090B26
:200CF400E553C4FCE7FB4CF7198002A7530EB209E54F45504551455270D289608E05E55E6E
:200D14007003755E01200224200121ED04FEAC5EC3EE9C5015758220C006C005C0041208C5
:200D340054D004D005D0061C80E68C5E30050E75822DC005120854D005155E8023ED60206E
:200D540030030E75822BC005120854D005155E800F30040C758220C005120854D005155E40
:200D7400200126AE5E8E041EC3ED9C502F3002067B307C0080047B207C008B82C006C005FF
:200D9400120854D005D00680DCC3ED955E5008E55EC39DF55E8007755E0080028E5EA96008
:200DB4008D068E051EED6026B20920090A09E7C4540FFD8D5380078705740F5DF553855373
:200DD40082C006C001120877D001D00680D4200103020916AE5E8E051EED70030209167572
:1A0DF4008220C006120854D00680EB8F821208540209168554828555832254
:0B0E9A003C4E4F20464C4F41543E00A0
:180E0E00AA82AB83120E266003A380F8C3E5829AF582E5839BF58322D6
:0D005100758163120E42E582600302004ECD
:1C0E260020F71430F6148883A88220F507E6A88375830022E280F7E49322E022DB
:040E42007582002293
:00000001FF
