:040000000200513277
:01000B0032C2
:0100130032BA
:01001B0032B2
:0100230032AA
:01002B0032A2
:01003300329A
:01003B003292
:01004300328A
:03004B0002091D8A
:2000AA007536C875370A7538AC75390D753AEE753B07E4F53CF53D753E12753F0B75402EF7
:2000CA0075410D7542F6754308F544F545F546F547F550F551F552F553F554F555F556F50F
:1000EA0057755B01F55CF55D755F01F56002004EC1
:03004E00020600A7
:2000FA0075B1677E007F01EE24FFFCEF34FFFD8C068D07EC4D70F0E5B130E7FB75B28822F7
:20011A00759850758920758DDCD28E438E10438780D29943A4012275FFDE75FFAD1200FAED
:20013A0012011A43E10443E34022AF8210990280FB8F992210980280FBAF998F82C00712D0
:20015A000144D0078F82222098057582FF800BC29885998212014485998222C00F85810F01
:20017A00E50F24FBF886820886830886F0121902E5828583F045F070028062E50F24FBFF9C
:20019A008F0BE50F24FBF8860808860908860A90000175F00012124790000175F000121961
:2001BA0002AE827F00C3EF9E501FEF2401F582E43400F583E0FDBD0A0DEF2401F582E43446
:2001DA0000F583740DF00F80DC752D01752E00752F00752C008E307582C6120486D00F220E
:2001FA0075270074C0252740177532277533007534407531007535017582C612050080E38B
:20021A0075280C752D28752E00752F40752C007530017582C61204862275322A753300751A
:20023A0034407531017535027582C612050074FFB52A05758200805F7F008F068EF005F055
:20025A007C017D008006EC2CFCED33FDD5F0F7AA2A7B00EA5204EB5205EC4D600774312FD2
:20027A00F58280330E8E07BE080040D0E52B30E0057582398021E52B30E10575822A8017ED
:20029A00E52B30E205758230800DE52B30E30575822380037582FF22AF82E4FDFEEF701D00
:2002BA00C006C0057472C0E07419C0E07480C0E0120175158115811581D005D006C006C0D7
:2002DA00057408C0E0E4C0E07408C0E0E4C0E07408C0E0E4C0E07408C0E0E4C0E07408C043
:2002FA00E0E4C0E07488C0E07419C0E07480C0E0120175E58124F3F58190A12075F007E407
:20031A00120421D005D0067F00C007C006C005120233AC82D005D006D0078C03BCFF02804D
:20033A0003BB2A17902710E4F5F0C007C006C005120421D005D006D00780CEBB232AC006ED
:20035A00C005120233AC82D005D006BC2313902710E4F5F0C006C005120421D005D006802F
:20037A00DD8D828E830204208B027C00C007C006C005C004C003C002C002C0047498C0E06A
:20039A007419C0E07480C0E0120175E58124FBF581D002D003D004D005D0068D118E12900D
:2003BA00000AC004C003C0021211BAA882A983D002D003D004D007EA28F8EC39F9E824D049
:2003DA00FDE934FFFEC007C006C005C003120233AC82D003D005D006D007ECB5031B902797
:2003FA0010E4F5F0C007C006C005C003120421D003D005D006D00780CC0FBF0500500302F5
:20041A0003238D828E8322AC82AD83AEF0FF780079007A007B00C3E89CE99DEA9EEB9F504A
:20043A000F08B8000909B900050ABA00E90B80E62220C7FDD2C530C3FDC2C5C2C322858223
:20045A00C210C30280FB228582C2D2C410C30280FB2230C3FD85C282C2C32230C3FDAFC2BC
:20047A00C2C3D2C410C30280FB8F8222AF82C2AFC00712044BD00774FE5FF58212045885E8
:20049A002C821204587F00AD307E001DBDFF011E8F037C00C3EB9DEC64808EF063F0809545
:2004BA00F0501FEF252DFCE4352EFDAE2F8C828D838EF012191AF582C007120458D0070FF2
:2004DA0080C5AE307F001EBEFF011FEE252DFEEF352EFFAD2F8E828F838DF012191AF5829F
:2004FA00120461D2AF22AF82C2AFC00712044BD00774FE5FF582C00712045885318212045C
:20051A006112044BD00774014FF5821204587F00AD357E001DBDFF011E8F037C00C3EB9D4F
:20053A00EC64808EF063F08095F0502ED2C2EF2532FCE43533FDAE34C007C006C005C00466
:20055A0012046CAB82D004D005D006D0078C828D838EF0EB1211920F80B6C2C2AE357F0015
:20057A001EBEFF011FEE2532FEEF3533FFAD34C007C006C005120475AC82D005D006D0075F
:20059A008E828F838DF0EC121192D2AF22752223752300752310752400752D22752E0075EF
:2005BA002F40752C2075300175823012048622752204752D22752E00752F40752C23753017
:2005DA000175823A12048675226B752300752400752D22752E00752F40752C2075300175D9
:2005FA00823A120486221201317582201201441209D01209AB1209CA1209E81209C012052A
:20061A00C9754A00754B007F0030B70302077E85363C85373D853E44853F4574FFC3954479
:20063A00F5EA74FF9545F5FA74FFC3953CF5EC74FF953DF5FCD2A5D2A3EF70CD1201FA74CE
:20065A009BC0E07419C0E07480C0E0120175158115811581120233AE82C006120958D006B4
:20067A00BEFF0280EFC006120233AD82D006BDFFF4C0061201FAD006BE31D91201FA74C9B5
:20069A00C0E07419C0E07480C0E01201751581158115811209691209ECC056C057C054C009
:2006BA005574D5C0E07419C0E07480C0E012131FE58124F9F581120CBD1201FA74E4C0E004
:2006DA007419C0E07480C0E0120175158115811581120233AE82C006120958D006BEFF02B0
:2006FA0080EFC006120233AD82D006BDFFF4C0061201FAD006BE31331201FA74F5C0E0745A
:20071A0019C0E07480C0E0120175158115811581755E0185424485434574FFC39544F5EA4E
:20073A0074FF9545F5FA1209698034BE32A31201FA74FBC0E07419C0E07480C0E012017533
:20075A0015811581158185404485414574FFC39544F5EA74FF9545F5FA755E021209697FA7
:20077A0001020623C3E536953CE537953D5004C2A3D2A5C3E53C9536E53D95375004D2A300
:20079A00C2A5E536B53C09E537B53D04C2A3C2A5E54670030208BBC007120AE3D007C3E53D
:2007BA0052940AE553648094805019C374F69552747F8553F063F08095F05008E55B600473
:2007DA00055B8007E55B6003755B01E55B24FA5003755B00E55B70030208AB7401B55E55DE
:2007FA0085424485434574FFC39544F5EA74FF9545F5FA756532758204C00712097A858233
:20081A005AD007E55A75F012A4FDAEF0E536C39DF53CE5379EF53DC3E53C953AE53D953B5B
:20083A005006853A3C853B3D74FFC3953CF5EC74FF953DF5FC7402B55E678540448541452E
:20085A0074FFC39544F5EA74FF9545F5FA756532758204C00712097A85825AD007E55A7505
:20087A00F012A4FDAEF0E536C39DF53CE5379EF53DC3E53C953AE53D953B5006853A3C850A
:20089A003B3D74FFC3953CF5EC74FF953DF5FC8010C007120C04120C53D007754600754A6D
:2008BA0000E5477003020623C0071201FAC044C045C03CC03DC052C053C050C0517400C004
:2008DA00E0741AC0E07480C0E0120175E58124F5F581C044C045C03CC03DC052C053C050A8
:2008FA00C0517423C0E0741AC0E07480C0E012131FE58124F5F581D007754700754B000246
:20091A00062322C0E0C0D010DF02802A054A055CE4B55C02055D74FC254A50067546017538
:20093A004A00054B74F6254B5006754701754B0075E9FF75F96F53D8C0D0D0D0E032E4F5D6
:20095A005CF55DC3E55C9406E55D940040F522E4F55CF55DC3E55C9432E55D940040F52286
:20097A008582AC53AADF43AA10E5AA30E5FBE5657005859C8280198565117512009001091B
:20099A00121936AE82AF83EE04F5F0E59C84F5822275D98175DAC275DDC275DCC275D84071
:2009BA0043E608D2AF2275D10375AA8043AB012275CF93D2C62253BDEF53A5EF43A50D43A1
:2009DA009010E5A675A6FF53A78043B07F2275E127227F3AE4F561F562F563F5647E00751D
:2009FA00324C7533007534407531277535028F82C007C006120500D006D0077403554CFDDE
:200A1A00BD0302801E75324C7533007534407531277535028F82C007C006120500D006D004
:200A3A000780D875324C7533007534407531A87535048F82C007C006120500D006D007ADAE
:200A5A004D7C00AA4C7B00EA4204EB4205EDC4CCC4540F6CCC540FCC6CCC30E30244F0FD57
:200A7A00EC2561F561ED3562F562AD4F7C00AA4E7B00EA4204EB4205EDC4CCC4540F6CCC90
:200A9A00540FCC6CCC30E30244F0FDEC2563F563ED3564F5640EBE400050030209F97511FB
:200ABA00407512008561828562831219368582548583557511407512008563828564831235
:200ADA001936858256858357227F3AE4F561F562F563F5647E0075324C753300753440755D
:200AFA0031277535028F82C007C006120500D006D0077403554CFDBD0302801E75324C7599
:200B1A0033007534407531277535028F82C007C006120500D006D00780D875324C753300D1
:200B3A007534407531A87535048F82C007C006120500D006D007AD4D7C00AA4C7B00EA4241
:200B5A0004EB4205EDC4CCC4540F6CCC540FCC6CCC30E30244F0FDEC2561F561ED3562F57B
:200B7A0062AD4F7C00AA4E7B00EA4204EB4205EDC4CCC4540F6CCC540FCC6CCC30E3024410
:200B9A00F0FDEC2563F563ED3564F5640EBE08005003020AF0E562C423C561C423541F656D
:200BBA0061C561541FC5616561C56130E40244E0F562E564C423C563C423541F6563C563DC
:200BDA00541FC5636563C56330E40244E0F564E561C39554F550E5629555F551E563C3958F
:200BFA0056F552E5649557F55322AE587F008550118551128E828F831211BAAE82AF83EEFD
:200C1A00253EF544EF353FF545C3E5409544E54195455006854044854145C3E5449542E5AE
:200C3A00459543500685424485434574FFC39544F5EA74FF9545F5FA2275653275820412AA
:200C5A00097A85825A85363C85373D8550828551831211AD858211858312AE597F008E825E
:200C7A008F831211BAAE82AF83EE253CF53CEF353DF53DC3E538953CE539953D5006853842
:200C9A003C85393DC3E53C953AE53D953B5006853A3C853B3D74FFC3953CF5EC74FF953DE3
:200CBA00F5FC221201FA7431C0E0741AC0E07480C0E0120175158115811581120233AF8231
:200CDA00C007120958D007BFFF0280EFC007120233AE82D007BEFFF4C0071201FAD007BF8A
:200CFA0031361201FA7468C0E0741AC0E07480C0E01201751581158115817470C0E0741ACC
:200D1A00C0E07480C0E012131F158115811581120969755801020F25BF32361201FA7480CF
:200D3A00C0E0741AC0E07480C0E01201751581158115817488C0E0741AC0E07480C0E0127D
:200D5A00131F158115811581120969755802020F25BF33361201FA7498C0E0741AC0E07479
:200D7A0080C0E012017515811581158174A0C0E0741AC0E07480C0E012131F1581158115F4
:200D9A0081120969755803020F25BF34361201FA74B0C0E0741AC0E07480C0E012017515D5
:200DBA00811581158174B8C0E0741AC0E07480C0E012131F15811581158112096975580483
:200DDA00020F25BF30028003020CD51201FA74C8C0E0741AC0E07480C0E01201751581158E
:200DFA00811581120233AF82C007120958D007BFFF0280EFC007120233AE82D007BEFFF444
:200E1A00C0071201FAD007EF24D075F064A4FEFC7D00C006C004C0057400C0E0741BC0E0B4
:200E3A007480C0E0120175E58124FBF581D006C006120233AF82D006C007C006120958D0C7
:200E5A0006D007BFFF0280E7C007C006120233AD82D006D007BDFFF0C007C0061201FAD0AE
:200E7A0006D007EF24D075F00AA42EFEFC7D00C006C004C0057400C0E0741BC0E07480C09A
:200E9A00E0120175E58124FBF581D006C006120233AF82D006C007C006120958D006D0073E
:200EBA00BFFF0280E7C007C006120233AD82D006D007BDFFF0C007C0061201FAD006D0074E
:200EDA00EF24D02EFEFC7D00C006C005C004C004C0057400C0E0741BC0E07480C0E01201AE
:200EFA0075E58124FBF581D004D005C004C0057403C0E0741BC0E07480C0E012131FE581B2
:200F1A0024FBF581120969D0068E581201FA7414C0E0741BC0E07480C0E0120175158115B7
:200F3A00811581120233AF82C007120958D007BFFF0280EFC007120233AE82D007BEFFF402
:200F5A00C0071201FAD007BF31361201FA7498C0E0741AC0E07480C0E01201751581158177
:200F7A00158174A0C0E0741AC0E07480C0E012131F1581158115811209697559030211914C
:200F9A00BF32361201FA7450C0E0741BC0E07480C0E01201751581158115817458C0E074B2
:200FBA001BC0E07480C0E012131F158115811581120969755906021191BF33361201FA741D
:200FDA0068C0E0741BC0E07480C0E01201751581158115817470C0E0741BC0E07480C0E09B
:200FFA0012131F158115811581120969755909021191BF34361201FA7480C0E0741BC0E0D9
:20101A007480C0E01201751581158115817489C0E0741BC0E07480C0E012131F1581158108
:20103A00158112096975590C021191BF30028003020F3D1201FA74C8C0E0741AC0E0748031
:20105A00C0E0120175158115811581120233AF82C007120958D007BFFF0280EFC0071202F9
:20107A0033AE82D007BEFFF4C0071201FAD007EF24D075F064A4FEFC7D00C006C004C005AA
:20109A007400C0E0741BC0E07480C0E0120175E58124FBF581D006C006120233AF82D006F2
:2010BA00C007C006120958D006D007BFFF0280E7C007C006120233AD82D006D007BDFFF0E6
:2010DA00C007C0061201FAD006D007EF24D075F00AA42EFEFC7D00C006C004C0057400C091
:2010FA00E0741BC0E07480C0E0120175E58124FBF581D006C006120233AF82D006C007C03F
:20111A0006120958D006D007BFFF0280E7C007C006120233AD82D006D007BDFFF0C007C085
:20113A00061201FAD006D007EF24D02EFEFD7F00C007C006C005C005C0077400C0E0741BC9
:20115A00C0E07480C0E0120175E58124FBF581D005D006D007C006C005C0077403C0E0745F
:18117A001BC0E07480C0E012131FE58124FBF581120969D0068E59226C
:201972000A54797065206469676974733B20656E6420772F230020202020202563256325B5
:20199200632563256300256300506C6561736520707574206D650A6F6E206120666C617446
:2019B2000A7375726661636521205468656E0A707265737320310043616C69627261746543
:2019D20064210058303A2025692C2059303A20256900313A2052696768740A323A204C6573
:2019F2006674005269676874004C65667400783A20256920793A2025690A44726976653A53
:201A1200202569205374656572696E673A2025690025690925690925690925690D0A005003
:201A320069636B204761696E0A50726573732061204E756D6265720A313A203120323A202B
:201A52003220333A20330A343A203420303A20637573746F6D004761696E3A20310044659E
:201A72007369726564204761696E3A2031004761696E3A2032004465736972656420476180
:201A9200696E3A2032004761696E3A20330044657369726564204761696E3A203300476131
:201AB200696E3A20340044657369726564204761696E3A203400456E74657220796F7572D5
:201AD200206E756D6265720A537461727420776974682030730A6966206E65656420626518
:201AF2000A736F203435206973203034350025690044657369726564204761696E3A20253E
:201B120069005069636B206B6478204761696E0A50726573732061204E756D6265720A3161
:201B32003A203320323A203620333A20390A343A20313220303A20637573746F6D00476156
:201B5200696E3A20360044657369726564204761696E3A2036004761696E3A203900446562
:201B72007369726564204761696E3A2039004761696E3A20313200446573697265642047A7
:081B920061696E3A2031320056
:06008000E478FFF6D8FD54
:20005E007900E94400601B7A00901BA5785175AF00E493F2A308B8000205AFD9F4DAF2751A
:02007E00AFFFD2
:1B11920020F71130F6138883A88220F509F6A8837583002280FEF280F5F0225C
:0D11AD00E58330E7076382FF6383FFA32221
:1D11BA00E5828511F0A4C582C0F08512F0A4D0F025F0C5838511F0A42583F58322DC
:2011D700C00F85810FC082058105810581E50F24FBF8A90F0909E6F70809E6F70809E6F7B2
:2011F700A80F080886820886830886F012191AFAA312191AFBA312191AFF74012AFCE43BB7
:20121700FD8F06A80F080886820886830886F0EC121192A3ED121192A3EE1211928A828B04
:20123700838FF0A80F08E6121192850F81D00F2285820C85830D85F00E75720C757300752A
:201257007440850875850976850A77850B789011D71213F6AE82AF83AB0CAC0DAD0E8B8282
:201277008C838DF0E41211928E828F8322C00F85810FE50F24F8FF8F78E50F24FBFF8F72E1
:20129700757300757440E50F24F8F886750886760886779011D71213F6AE82AF83E50F240D
:1B12B700FBF886030886040886058B828C838DF0E41211928E828F83D00F2226
:200086007800E84400600A790175AF00E4F309D8FC7850E84400600C7901900001E4F0A318
:0400A600D8FCD9FAAF
:2012D2007A10E4FBFCE58225E0F582E58333F583EB33FBEC33FCEB9511F5F0EC951240061E
:0912F200FCABF0438201DADD22BD
:2012FB00C00F85810F120144D00F2285827585837685F077E4F572F573F5748510789012E6
:20131B00FB0213F6C00F85810FE50F24FBFF8F78E4F572F573F574E50F24FBF886750886FF
:0D133B00760886779012FB1213F6D00F2271
:20134800AF82C068C069C06A1213558007C066C0678F82221581158115810570E4B5700216
:20136800057122AF8274302FFF24C6500A74072FFF3000034307208F82021348E582FFC4A8
:20138800540FF582C00712136BD007740F5FF58202136B858211856B12856C13856D1485BB
:2013A8006E15AA6F751620EA2AFAE515235401FF8A064EFAE5122512F512E51333F513E53A
:2013C8001433F514E51533F515C3EA95114008EAC39511FA431201E51614FF8F1670C885D0
:2013E800126B85136C85146D85156E8A6F2285826685836785726885736985746AE4F570F3
:20140800F571AD75AE76AF778D828E838FF012191AFC74012DF575E43EF5768F77ECFF7018
:20142800030218FBBF250280030218F3C201C202C203C204C205C206C207C208757900757F
:201448007A00757BFFAA75AB76AE778A828B838EF012191AFFA3AA82AB838A758B768E77D8
:20146800BF25078F821213488098BF3000402DEF24C6402874FFB57B12E57A75F00AA42FF0
:20148800FC24D0F57A70C4D20280C0E57B75F00AA4FC8F05ED2C24D0F57B80AFBF2E0A7483
:2014A800FFB57BA7757B0080A2BF6100400CEF248540075307DFD2008002C200BF20028041
:2014C8006DBF2B028063BF2D028059BF42028063BF43028068BF4403021699BF4603021658
:2014E800AFBF4803021453BF4903021699BF4A03021453BF4C028040BF4F030216A0BF50EC
:201508000302162EBF5302805ABF5403021453BF55030216A5BF58030216AABF5A0302142B
:20152800530216B3D201021453D203021453D204021453D206021453D20702145330060A09
:20154800E57814F9897887078011E57824FEFE8E788E018705098706198D078F821213489A
:201568000216BCE57824FDFE8E788E01870409870509870619198C6B8D6C8E6D8C828D838D
:201588008EF0121902AD82AE8374FFB57B028D7B200126C3ED957A5020E57AC39DF57AAE39
:2015A8007A8E041EEC6010758220C006C005121348D005D00680EA8E7AAE7B856B82856CE5
:2015C80083856DF012191AFCFF602F8E041EC374808CF063F08095F050208F82C006C00588
:2015E800121348D005D006AA6BAB6CAC6D0ABA00010B8A6B8B6C8C6D80C12001030216BC98
:20160800C3ED957A40030216BCE57AC39DF57AAE7A8E041EEC70030216BA758220C00612C6
:201628001348D00680EBE57824FDFC8C788C01870209870309870419198A6B8B6C8C6DAC88
:201648006DBC800040047F438014BC600040047F50800BBC400040047F4980027F588F8213
:20166800C00712134875823A121348758230121348758278121348D007BF4902800BBF50A5
:20168800028006856C82121384856B821213848023D20575790A801C757908801775790AF0
:2016A8008012757910800DD20880098F8212134880028E7A30085CE57824FCFE8E788E01F6
:2016C80087020987030987040987061919198A6B8B6C8C6D8E6E756B9A756C1B756D808533
:2016E8006B7D856C7E856D7F7401257DFAE4357EFCAE7F8A6B8C6C8E6D857D82857E8385D2
:201708007FF012191AFEFF700302140A8F8212134880CCE579700302140A757C1C30062D52
:20172800E57814F9897887048C027B007C007E008A6B8B6C8C6D8E6E200566AA6B7B007C30
:20174800007E008A6B8B6C8C6D8E6E8054300721E57824FCFE8E788E01870209870309873A
:20176800040987061919198A6B8B6C8C6D8E6E8030E57824FEFE8E788E018704098706199F
:20178800EE3395E0FBFA8C6B8E6C8B6D8A6E200510AA6BAB6C7C007E008A6B8B6C8C6D8E07
:2017A8006E300522E56E30E71BC3E4956BFAE4956CFBE4956DFCE4956EFE8A6B8B6C8C6DAA
:2017C8008E6E8002C205D209A97C7E00756F00857982C006C00112139BD001D00620090BB8
:2017E800E56FC4FCE7FB4CF7198002A76F0EB209E56B456C456D456E70D2897C8E05E57A8F
:201808007003757A01200224200121ED04FEAC7AC3EE9C5015758220C006C005C004121383
:2018280048D004D005D0061C80E68C7A30050E75822DC005121348D005157A8023ED602044
:2018480030030E75822BC005121348D005157A800F30040C758220C005121348D005157A0B
:20186800200126AE7A8E041EC3ED9C502F3002067B307C0080047B207C008B82C006C005E4
:20188800121348D005D00680DCC3ED957A5008E57AC39DF57A8007757A0080028E7AA97C62
:2018A8008D068E051EED6026B20920090A09E7C4540FFD8D6F80078705740F5DF56F856F20
:2018C80082C006C00112136BD001D00680D420010302140AAE7A8E051EED700302140A755A
:1A18E8008220C006121348D00680EB8F8212134802140A8570828571832220
:0B1B9A003C4E4F20464C4F41543E0093
:18190200AA82AB8312191A6003A380F8C3E5829AF582E5839BF58322D8
:0D00510075817F12196EE582600302004E7A
:1C191A0020F71430F6148883A88220F507E6A88375830022E280F7E49322E022DC
:20193600C2D5E58330E70DD2D5E4C39582F582E49583F583E51230E70DB2D5E4C39511F53A
:1819560011E49512F5121212D230D50BE4C39582F582E49583F5832205
:04196E00758200225C
:00000001FF
