:0400000002001132B7
:03000B0002083FA9
:20006A007522FB7523017524C875250175269C752701752873752901752A52752B01E4F561
:09008A0036F537F538F539F5407B
:03009D0002000E50
:03000E0002011BD1
:2000A00075B1677E007F01EE24FFFCEF34FFFD8C068D07EC4D70F0E5B130E7FB75B2882251
:2000C000759850758920758DDCD28E438E10438780D29943A4012275FFDE75FFAD1200A0A2
:2000E0001200C043E10443E34022AF8210990280FB8F992210980280FBAF998F82C0071286
:2001000000EAD0078F82222098057582FF800BC2988599821200EA859982221200D71207F3
:200120007F12082812082E1207927582201200EA746BC0E07410C0E07480C0E01209E215AF
:2001400081158115811200F4858242AE427F008E828F831208E7D28CE4F52CF52D749CC0BC
:20016000E07410C0E07480C0E01209E215811581158130B42DA2B7E433FE7F00A2B6E433BB
:20018000FC7D00C006C007C004C00574E5C0E07410C0E07480C0E01209E2E58124F9F58129
:2001A00080D0852C30852D31741C252CF532E4352DF533E532B52CFBE533B52DF630B603E9
:2001C00020B79320B60830B7051201ED808830B60920B70612036A02015630B603020156FD
:2001E00030B70302015612050E020156227403C0E07411C0E07480C0E01209E21581158123
:200200001581747DC0E07411C0E07480C0E01209E2158115811581E4F536F537F538F539A9
:20022000F52CF52DF53A75A0FFC2A330B42DA2B7E433FE7F00A2B6E433FC7D00C006C00760
:20024000C004C00574E5C0E07410C0E07480C0E01209E2E58124F9F58180D0852C30852D8B
:2002600031741C252CF532E4352DF533E532B52CFBE533B52DF674FB253A500302034DD2AF
:20028000A5D2A312085085823BD28CE4F52CF52DC3E52C949CE52D94025008853B821206B5
:2002A000B380ED75A0FFE4F52CF52D30B41175450575820412079C85823C1206B380ECC243
:2002C0008C852C34852D35120724853B0E853C82120766E53BB53C02800B740A2536F53657
:2002E000E43537F537750EA7750F00853482853583120882AE82AF83EE2536F536EF35378F
:20030000F537E5362538F538E5373539F539C038C039C036C03774DEC0E07411C0E074806B
:20032000C0E01209E2E58124F9F581E4F536F537F52CF52DD28CC3E52C944EE52D940140AE
:20034000F5C28CE4F52CF52D053A020276C038C0397424C0E07412C0E07480C0E01209E29A
:20036000E58124FBF5811206E722745AC0E07412C0E07480C0E01209E21581158115817406
:20038000D5C0E07412C0E07480C0E01209E2158115811581E4F536F537F538F539F52CF5C3
:2003A0002DF53A75A0FF30B42DA2B7E433FE7F00A2B6E433FC7D00C006C007C004C005745D
:2003C000E5C0E07410C0E07480C0E01209E2E58124F9F58180D0852C30852D31741C252CF5
:2003E000F532E4352DF533E532B52CFBE533B52DF674FB253A50030204F1753F00C2A3D282
:20040000A5E4F52CF52DD28CC3E52C944EE52D940140F5D2A575450575820412079C858233
:200420003C1206B3E4F52CF52DE53A253A2422F9870609870719C3E52C9EE52D9F503A20C7
:20044000B4E7852C30852D317407252CF532E4352DF533E532B52CFBE533B52DF6053F3085
:20046000B4FD7407252CF532E4352DF533E532B52CFBE533B52DF680B0C28C120724853F08
:200480000E853C82120766E53FB53C0B740A2536F536E43537F537E5362538F538E53735F6
:2004A00039F539C038C039C036C03774DEC0E07411C0E07480C0E01209E2E58124F9F58156
:2004C000E4F536F537F52CF52DD28CC3E52C944EE52D940140F5D2A5D2A3C3E52C94F5E580
:2004E0002D940140F5C28CE4F52CF52D053A0203F1C038C0397424C0E07412C0E07480C058
:20050000E01209E2E58124FBF5811206E722742EC0E07413C0E07480C0E01209E21581153D
:2005200081158174BCC0E07413C0E07480C0E01209E2158115811581E4F536F537F538F5FD
:2005400039F52CF52DF53A75A0FFC2A530B42DA2B7E433FE7F00A2B6E433FC7D00C006C009
:2005600007C004C00574E5C0E07410C0E07480C0E01209E2E58124F9F58180D0852C30858E
:200580002D31741C252CF532E4352DF533E532B52CFBE533B52DF674FB253A5003020696E5
:2005A00012085085823BD28CE4F52CF52DC3E52C949CE52D94025008853B821206B380ED8C
:2005C00075A0FFE4F52CF52DC3E52C949CE52D9402501175450075820412079C85823C1214
:2005E00007DF80E4C28C12072475F034E53C84F582853B0E120766E53B75F010A4FEAFF04E
:20060000E53C0303543FFD7C00EEC39DF582EF9CF5831208F6AE82EE2EF53EAE3E7F007471
:200620000AC39EFEE49FFFC3E49E74808FF063F08095F05016AE3E7F00740AC39EFEE49F8E
:20064000FFEE2536F536EF3537F537E5362538F538E5373539F539C038C039C036C03774F1
:20066000DEC0E07411C0E07480C0E01209E2E58124F9F581E4F536F537F52CF52DD28CC3AE
:20068000E52C944EE52D940140F5C28CE4F52CF52D053A020597C038C0397424C0E074128A
:2006A000C0E07480C0E01209E2E58124FBF5811206E722AF82D2A6D2A2D2A4D2A7EF60266C
:2006C000BF0104C2A6801FBF0206C2A6C2A28016BF0308C2A6C2A2C2A4800BBF0408C2A66C
:2006E000C2A2C2A4C2A722D28C753D0074FC253D402BE4F52CF52DC3E52C942AE52D9400F9
:200700005006C2A5D2A380EFC3E52C9454E52D94005006D2A5C2A380EF053D80CFC28CD284
:20072000A5D2A322E4F52CF52DD28CC3E52C94A7E52D9400500575A00080F0C3E52C944EB3
:20074000E52D9401500575A0FF80F0C3E52C94F5E52D9401500575A00080F0C28CE4F52CE8
:20076000F52D75A0FF22AF82C3EF950E5006D2A5C2A3800AC3E50E9F5004C2A5D2A32253E5
:20078000BDEF53A5EF43901043A6FC53A70F43B0F02275D10375AA8043AB01228582AC53F1
:2007A000AADF43AA10E5AA30E5FBE5457005859C82802B85450E750F0090010912102FE5FB
:2007C000828583F02401F52EE435F0F52FAE9C7F00852E0E852F0F8E828F8312088222E518
:2007E000820303543FFF7E00C3EE9F5011758223C007C0061200EAD006D0070E80EA743F35
:20080000C39FFF7E00C3EE9F5011758220C007C0061200EAD006D0070E80EA75827C1200FE
:20082000EA75820D1200EA2243A802D2AF22438E085389F0438901C28CE4F58AF58C22C096
:20084000E0C0D0052CE4B52C02052DD0D0D0E0321208AB750E05750F00120FF9AE82AF832F
:200860008E41E540B541141208AB750E05750F00120FF9AE82AF838E4180E785414085412B
:020880008222D2
:20106B004665656420746865206772696D206265617374206F662072616E646F6D6E6573B6
:20108B0073207769746820612073656564210D0A005573652074686520736C69646520732A
:2010AB007769746368657320746F2073656C65637420796F757220666174652C2070726549
:2010CB0073732074686520627574746F6E20746F20626567696E2E0D0A002830206D6561EA
:2010EB006E73206F6E29205353303A202564205353313A2025640D00466F7220746869731F
:20110B002067616D656D6F64652C2061206C6F772073636F72652077696E732E20546865BA
:20112B0020636F6D70757465722077696C6C206C6967687420612072616E646F6D206E75E0
:20114B006D626572206F66204C4544732C20796F75206D75737420757365207468652050B1
:20116B004F5420746F206D617463682069742E0D0A00596F75206765742066697665207454
:20118B00726965732C2070726573732074686520627574746F6E20746F20626567696E20B3
:2011AB00616E6420746F207375626D697420796F757220616E737765722E20476F6F6420A4
:2011CB006C75636B20616476656E7475726572210D0A00596F75722073636F726520666FDD
:2011EB00722074686973207472792069732025692C20796F75722073636F726520666F72B3
:20120B00207468652067616D6520736F206661722069732025690D0A00596F7572206669EE
:20122B006E616C2073636F72652069732025692C20796F75206172652061206272617665D0
:20124B0020616476656E7475726572210D0A00466F7220746869732067616D656D6F64658D
:20126B002C20796F752077696C6C206475656C20616E6F74686572206272617665206164F2
:20128B0076656E74757265722E204F6E65206F6620796F752077696C6C20736574207468A6
:2012AB006520504F542C20746865206F746865722077696C6C207072657373207468652036
:2012CB00425554544F4E2E0D0A00486967682073636F72652077696E732C20796F75206715
:2012EB00657420666976652074726965732C2070726573732074686520627574746F6E2043
:20130B00746F20626567696E2E20476F6F64206C75636B20616476656E7475726572732120
:20132B000D0A00466F7220746869732067616D656D6F64652C686967682073636F72652005
:20134B0077696E732E2054686520636F6D70757465722077696C6C2067656E657261746580
:20136B0020612074657374206F6620796F7572206D6574746C652C20796F752077696C6CF1
:20138B00207573652074686520504F542C20746865206F746865722077696C6C2070726553
:2013AB0073732074686520425554544F4E2E0D0A00596F752067657420666976652074722D
:2013CB006965732C2070726573732074686520627574746F6E20746F20626567696E2E20B5
:1813EB00476F6F64206C75636B20616476656E7475726572210D0A00FA
:200882007A10E4FBFCE58225E0F582E58333F583EB33FBEC33FCEB950EF5F0EC950F40067E
:0908A200FCABF0438201DADD2217
:0A009300750801E4F509F50AF50B04
:2008AB0085080E85090F850A10850B11904E6D75F0C67441120903AC82AD83AEF0FF7439C4
:2008CB002CF50874303DF509E43EF50AE43FF50BAC0AAD0B8C82747F5DF58322AE82AF83F9
:0B08EB008E088F09750A00750B0022B3
:06004000E478FFF6D8FD94
:20001E007900E94400601B7A0090140E780175AF00E493F2A308B8000205AFD9F4DAF27548
:02003E00AFFF12
:0D08F600E58330E7076382FF6383FFA322E1
:20090300AAF0FBE582850EF0A4FCADF0E583850EF0A42DFDE435F0FEE582850FF0A42DFD9F
:20092300E5F03EFEE433FFEA850EF0A42EFEE5F03FFFE583850FF0A42EFEE5F03FFFE58207
:200943008510F0A42EFEE5F03FFFEB850EF0A42FFFEA850FF0A42FFFE5838510F0A42FFFED
:0E096300E5828511F0A42F8EF08D838C822208
:20097100E50E450F60467A01E50E25E0F50EE50F334012F50FE582950EE583950F40030A23
:2009910080E6C3E50F13F50FE50E13F50EC3E582950EF5F0E583950F4005F58385F082C3D4
:0D09B100E50F13F50FE50E13F50EDAE12248
:200046007800E84400600A790175AF00E4F309D8FC7800E84400600C7900900001E4F0A3A9
:04006600D8FCD9FAEF
:2009BE00C00D85810D1200EAD00D2285825585835685F057E4F552F553F554850C5890097A
:2009DE00BE020AB9C00D85810DE50D24FBFF8F58E4F552F553F554E50D24FBF88655088671
:0D09FE00560886579009BE120AB9D00D2286
:200A0B00AF82C048C049C04A120A188007C046C0478F82221581158115810550E4B5500282
:200A2B00055122AF8274302FFF24C6500A74072FFF3000034307208F82020A0BE582FFC454
:200A4B00540FF582C007120A2ED007740F5FF582020A2E85820E854B0F854C10854D1185F9
:200A6B004E12AA4F751320EA2AFAE512235401FF8A064EFAE50F250FF50FE51033F510E5D8
:200A8B001133F511E51233F512C3EA950E4008EAC3950EFA430F01E51314FF8F1370C88531
:200AAB000F4B85104C85114D85124E8A4F2285824685834785524885534985544AE4F55005
:200ACB00F551AD55AE56AF578D828E838FF0120FDDFC74012DF555E43EF5568F57ECFF7086
:200AEB0003020FBEBF25028003020FB6C201C202C203C204C205C206C207C2087559007572
:200B0B005A00755BFFAA55AB56AE578A828B838EF0120FDDFFA3AA82AB838A558B568E5765
:200B2B00BF25078F82120A0B8098BF3000402DEF24C6402874FFB55B12E55A75F00AA42FBC
:200B4B00FC24D0F55A70C4D20280C0E55B75F00AA4FC8F05ED2C24D0F55B80AFBF2E0A7429
:200B6B00FFB55BA7755B0080A2BF6100400CEF248540075307DFD2008002C200BF200280C7
:200B8B006DBF2B028063BF2D028059BF42028063BF43028068BF4403020D5CBF4603020DED
:200BAB0072BF4803020B16BF4903020D5CBF4A03020B16BF4C028040BF4F03020D63BF5087
:200BCB0003020CF1BF5302805ABF5403020B16BF5503020D68BF5803020D6DBF5A03020B94
:200BEB0016020D76D201020B16D203020B16D204020B16D206020B16D207020B1630060A31
:200C0B00E55814F9895887078011E55824FEFE8E588E018705098706198D078F82120A0BA6
:200C2B00020D7FE55824FDFE8E588E01870409870509870619198C4B8D4C8E4D8C828D83B9
:200C4B008EF0120FC5AD82AE8374FFB55B028D5B200126C3ED955A5020E55AC39DF55AAE66
:200C6B005A8E041EEC6010758220C006C005120A0BD005D00680EA8E5AAE5B854B82854C11
:200C8B0083854DF0120FDDFCFF602F8E041EC374808CF063F08095F050208F82C006C00535
:200CAB00120A0BD005D006AA4BAB4CAC4D0ABA00010B8A4B8B4C8C4D80C1200103020D7F2A
:200CCB00C3ED955A4003020D7FE55AC39DF55AAE5A8E041EEC7003020D7D758220C0061219
:200CEB000A0BD00680EBE55824FDFC8C588C01870209870309870419198A4B8B4C8C4DACB5
:200D0B004DBC800040047F438014BC600040047F50800BBC400040047F4980027F588F8279
:200D2B00C007120A0B75823A120A0B758230120A0B758278120A0BD007BF4902800BBF5003
:200D4B00028006854C82120A47854B82120A478023D20575590A801C755908801775590A62
:200D6B008012755910800DD20880098F82120A0B80028E5A30085CE55824FCFE8E588E0102
:200D8B0087020987030987040987061919198A4B8B4C8C4D8E4E754B03754C14754D8085F7
:200DAB004B5D854C5E854D5F7401255DFAE4355EFCAE5F8A4B8C4C8E4D855D82855E8385D8
:200DCB005FF0120FDDFEFF7003020ACD8F82120A0B80CCE5597003020ACD755C1930062D17
:200DEB00E55814F9895887048C027B007C007E008A4B8B4C8C4D8E4E200566AA4B7B007C57
:200E0B00007E008A4B8B4C8C4D8E4E8054300721E55824FCFE8E588E018702098703098740
:200E2B00040987061919198A4B8B4C8C4D8E4E8030E55824FEFE8E588E01870409870619A5
:200E4B00EE3395E0FBFA8C4B8E4C8B4D8A4E200510AA4BAB4C7C007E008A4B8B4C8C4D8E6D
:200E6B004E300522E54E30E71BC3E4954BFAE4954CFBE4954DFCE4954EFE8A4B8B4C8C4D10
:200E8B008E4E8002C205D209A95C7E00754F00855982C006C001120A5ED001D00620090BC4
:200EAB00E54FC4FCE7FB4CF7198002A74F0EB209E54B454C454D454E70D2895C8E05E55AD5
:200ECB007003755A01200224200121ED04FEAC5AC3EE9C5015758220C006C005C004120A13
:200EEB000BD004D005D0061C80E68C5A30050E75822DC005120A0BD005155A8023ED60204E
:200F0B0030030E75822BC005120A0BD005155A800F30040C758220C005120A0BD005155A1D
:200F2B00200126AE5A8E041EC3ED9C502F3002067B307C0080047B207C008B82C006C0054A
:200F4B00120A0BD005D00680DCC3ED955A5008E55AC39DF55A8007755A0080028E5AA95CAE
:200F6B008D068E051EED6026B20920090A09E7C4540FFD8D4F80078705740F5DF54F854FC6
:200F8B0082C006C001120A2ED001D00680D4200103020ACDAE5A8E051EED7003020ACD7594
:1A0FAB008220C006120A0BD00680EB8F82120A0B020ACD8550828551832279
:0B1403003C4E4F20464C4F41543E0031
:180FC500AA82AB83120FDD6003A380F8C3E5829AF582E5839BF5832266
:0D00110075815F121067E582600302000E2A
:1C0FDD0020F71430F6148883A88220F507E6A88375830022E280F7E49322E02223
:200FF900C2D5E58330E70DD2D5E4C39582F582E49583F583E50F30E70BE4C3950EF50EE41E
:16101900950FF50F12097130D50BE4C39582F582E49583F58322B2
:20102F00C2D5E58330E70DD2D5E4C39582F582E49583F583E50F30E70DB2D5E4C3950EF550
:18104F000EE4950FF50F12088230D50BE4C39582F582E49583F5832278
:04106700758200226C
:00000001FF
