:040000000200513277
:01000B0032C2
:0100130032BA
:01001B0032B2
:0100230032AA
:01002B0032A2
:01003300329A
:01003B003292
:01004300328A
:03004B00020C5351
:2000AA007536CD75370A7538AE75390D753AEC753B07E4F53CF53DF53EF53F754067754120
:2000CA000C75426175430D75444F75450BF546F54775481E75491E754A14F54BF54CF54E9B
:0500EA00F55E02004E6E
:03004E000205F5B3
:2000EF0075B1677E007F01EE24FFFCEF34FFFD8C068D07EC4D70F0E5B130E7FB75B2882202
:20010F00759850758920758DDCD28E438E10438780D29943A4012275FFDE75FFAD1200EF03
:20012F0012010F43E10443E34022AF8210990280FB8F992210980280FBAF998F82C00712E6
:20014F000139D0078F82222098057582FF800BC29885998212013985998222C00F85810F22
:20016F00E50F24FBF886820886830886F0121493E5828583F045F070028062E50F24FBFF1B
:20018F008F0BE50F24FBF8860808860908860A90000175F000120D9390000175F00012142A
:2001AF0093AE827F00C3EF9E501FEF2401F582E43400F583E0FDBD0A0DEF2401F582E434C0
:2001CF0000F583740DF00F80DC752D01752E00752F00752C008E307582C612047BD00F2224
:2001EF0075270074C0252740177532277533007534407531007535017582C61204F580E3A2
:20020F0075280C752D28752E00752F40752C007530017582C612047B2275322A7533007530
:20022F0034407531017535027582C61204F574FFB52A05758200805F7F008F068EF005F06C
:20024F007C017D008006EC2CFCED33FDD5F0F7AA2A7B00EA5204EB5205EC4D600774312FDD
:20026F00F58280330E8E07BE080040D0E52B30E0057582398021E52B30E10575822A8017F8
:20028F00E52B30E205758230800DE52B30E30575822380037582FF22AF82E4FDFEEF701D0B
:2002AF00C006C00574CBC0E07414C0E07480C0E012016A158115811581D005D006C006C099
:2002CF00057408C0E0E4C0E07408C0E0E4C0E07408C0E0E4C0E07408C0E0E4C0E07408C04E
:2002EF00E0E4C0E074E1C0E07414C0E07480C0E012016AE58124F3F58190A12075F007E4C9
:20030F00120416D005D0067F00C007C006C005120228AC82D005D006D0078C03BCFF02806E
:20032F0003BB2A17902710E4F5F0C007C006C005120416D005D006D00780CEBB232AC00603
:20034F00C005120228AC82D005D006BC2313902710E4F5F0C006C005120416D005D0068050
:20036F00DD8D828E830204158B027C00C007C006C005C004C003C002C002C00474F1C0E027
:20038F007414C0E07480C0E012016AE58124FBF581D002D003D004D005D0068D118E129028
:2003AF00000AC004C003C002120D06A882A983D002D003D004D007EA28F8EC39F9E824D00C
:2003CF00FDE934FFFEC007C006C005C003120228AC82D003D005D006D007ECB5031B9027AD
:2003EF0010E4F5F0C007C006C005C003120416D003D005D006D00780CC0FBF05005003020B
:20040F0003188D828E8322AC82AD83AEF0FF780079007A007B00C3E89CE99DEA9EEB9F5060
:20042F000F08B8000909B900050ABA00E90B80E62220C7FDD2C530C3FDC2C5C2C32285822E
:20044F00C210C30280FB228582C2D2C410C30280FB2230C3FD85C282C2C32230C3FDAFC2C7
:20046F00C2C3D2C410C30280FB8F8222AF82C2AFC007120440D00774FE5FF58212044D8509
:20048F002C8212044D7F00AD307E001DBDFF011E8F037C00C3EB9DEC64808EF063F080955B
:2004AF00F0501FEF252DFCE4352EFDAE2F8C828D838EF01214ABF582C00712044DD0070F7C
:2004CF0080C5AE307F001EBEFF011FEE252DFEEF352EFFAD2F8E828F838DF01214ABF5821E
:2004EF00120456D2AF22AF82C2AFC007120440D00774FE5FF582C00712044D853182120488
:20050F0056120440D00774014FF58212044D7F00AD357E001DBDFF011E8F037C00C3EB9D7B
:20052F00EC64808EF063F08095F0502ED2C2EF2532FCE43533FDAE34C007C006C005C00471
:20054F00120461AB82D004D005D006D0078C828D838EF0EB120CDE0F80B6C2C2AE357F00E4
:20056F001EBEFF011FEE2532FEEF3533FFAD34C007C006C00512046AAC82D005D006D00775
:20058F008E828F838DF0EC120CDED2AF22752223752300752310752400752D22752E0075B3
:2005AF002F40752C2075300175823012047B22752204752D22752E00752F40752C2375302D
:2005CF000175823A12047B75226B752300752400752D22752E00752F40752C2075300175EF
:2005EF00823A12047B2212012612072912074012073C12070B1207237582201201397555C7
:20060F000074F4C0E07414C0E07480C0E0120EB0158115811581120CAB1201EF743EC0E058
:20062F007415C0E07480C0E012016A15811581158120B72F74FFC39536FE74FF9537FF8EDE
:20064F00EA8FFA8EEC8FFC8EED8FFDE55E70E21208CC755846755905120A97120B72755E96
:20066F000180CE74FFC3953EFE74FF953FFF8EEC8FFC8EED8FFDE55724695025E54C7008DC
:20068F00755846755905800B7401B54C067558CA755908E54CB401009200E433F54C755755
:2006AF0000E54E600F12074A8582518583521207AF754E00E54F455070030206407582036B
:2006CF00120C8F85824DAE4D7F00C006C007C03CC03DC05AC05BC051C052C058C0597449C4
:2006EF00C0E07415C0E07480C0E0120EB0E58124F3F581E4F54FF5500206402275D98175B0
:20070F00DBC275DAC275DDC275DCC275D84043E608D2AF2275CF93D2C62243A4F053BDF725
:20072F0053A5F743900853A78043B07F2275E1252275D10375AA8043AB012275325C753391
:20074F00007534407531027535027582C01204F5AF5C7E00AC5D7D00EC4EF582ED4FF58317
:20076F002275325C7533007534407531027535027582E01204F5AF5C7E00AC5D7D00EC4E35
:20078F00F54FED4FF550755C51752D5C8E2E752F408E2C7530017582E012047B854F822285
:2007AF00E558C39551F55AE5599552F55BC37408955A7487855BF063F08095F0500EE55A92
:2007CF0024F0F55AE55B34F1F55B801AC3E55A94F8E55B64809478500D7410C3955AF55AB8
:2007EF00740E955BF55BAC36AD377E007F00A84879007A007B00855A11E55BF5123395E028
:20080F00F513F514888289838AF0EBC007C006C005C004120E1EA882A983AAF0FBD004D05A
:20082F0005D006D007E82CFCE93DFDEA3EFEEB3FFF854961E4F562F563F564E55AC3954A79
:20084F00FAE55B954B8A11F5123395E0F513F5148561828562838563F0E564C007C006C0D4
:20086F0005C004120E1EA882A983AAF0FBD004D005D006D007E82CFCE93DFDEA3EFEEB3F9E
:20088F00FF8C3C8D3DC3E538953CE539953D500885383C85393D8011C3E53C953AE53D95D0
:2008AF003B5006853A3C853B3D74FFC3953CF5EA74FF953DF5FA855A4A855B4B221201EF0E
:2008CF00745AC0E07415C0E07480C0E012016A158115811581120228AF82C007120CA1D0DC
:2008EF0007BFFF0280EFC007120228AE82D007BEFFF4C0071201EFD007EF24D075F00AA462
:20090F00FEFC7D00C006C004C005748AC0E07415C0E07480C0E012016AE58124FBF581D05F
:20092F0006C006120228AF82D006C007C006120CA1D006D007BFFF0280E7C007C0061202D8
:20094F0028AD82D006D007BDFFF0C007C0061201EFD006D007EF24D02EFEFC7D00C006C08E
:20096F0005C004C004C005748AC0E07415C0E07480C0E012016AE58124FBF581D004D0059A
:20098F00C004C005748DC0E07415C0E07480C0E012016AE58124FBF581120CABD0068E4874
:2009AF001201EF749CC0E07415C0E07480C0E012016A158115811581120228AF82C0071234
:2009CF000CA1D007BFFF0280EFC007120228AD82D007BDFFF4C0071201EFD007EF24D075A4
:2009EF00F00AA4FEFC7D00C006C004C005748AC0E07415C0E07480C0E012016AE58124FB27
:200A0F00F581D006C006120228AF82D006C007C006120CA1D006D007BFFF0280E7C007C0CB
:200A2F0006120228AD82D006D007BDFFF0C007C0061201EFD006D007EF24D02EFEFD7F0016
:200A4F00C007C006C005C005C007748AC0E07415C0E07480C0E012016AE58124FBF581D006
:200A6F0005D006D007C006C005C00774CCC0E07415C0E07480C0E012016AE58124FBF5814E
:200A8F00120CABD0068E4922754F0A75500075530A755400755700740625575003020B71EE
:200AAF00120770AF828F4F755000120CA1E542C39544F582E5439545F58375112875120022
:200ACF00120CB5854F11855012120D06AE82AF83EE2544F546EF3545F547C3E5429546E500
:200AEF0043954750088542468543478011C3E5469544E5479545500685444685454712016D
:200B0F00EFAE577F00C04FC050C006C007C046C04774DBC0E07415C0E07480C0E012016A71
:200B2F00E58124F7F58174FFC39546F5EB74FF9547F5FBE54FC39553F582E5509554F58393
:200B4F00120CF9AE82AF83C3740A9E74808FF063F08095F05003755700854F5385505402F2
:200B6F000AA622754F0A75500075530A755400755700740625575003020C52120770AF8237
:200B8F008F4F755000120CA1E538C3953AF582E539953BF583751128751200120CB5854F7C
:200BAF0011855012120D06AE82AF83EE253AF53EEF353BF53FC3E538953EE539953F500897
:200BCF0085383E85393F8011C3E53E953AE53F953B5006853A3E853B3F1201EFAE577F00FC
:200BEF00C04FC050C006C007C03EC03F74DBC0E07415C0E07480C0E012016AE58124F7F59E
:200C0F008174FFC3953EFE74FF953FFF8EEC8FFC8EED8FFDE54FC39553F582E5509554F582
:200C2F0083120CF9AE82AF83C3740A9E74808FF063F08095F05003755700854F5385505490
:200C4F00020B8122C0E0C0D010DF02802B75E9FF75F96F05560557055574FE255550067507
:200C6F004E017555007401B55E0E740AB55609754F0175500075560053D8C0D0D0D0E03262
:200C8F008582AC53AADF43AA10E5AA30E5FB859C822275560074FA255650FA2275560074F6
:060CAF00CE255650FA228A
:2014CB000A54797065206469676974733B20656E6420772F23002020202020256325632561
:2014EB006325632563002563004120627261766520676F6E646F6C61207374616E647320A4
:20150B00616C6F6E6520616761696E737420746865206D616E7920686F72726F7273206FB6
:20152B006E2074686520626174746C656669656C642100476F6F64206C75636B2100256909
:20154B000925690925690925690925690D0A005069636B2061206B500A507265737320747F
:20156B00776F204E756D626572730A0A656E746572207769746820302066697273740025B3
:20158B00690044657369726564206B503A202569005069636B2061206B440A507265737366
:2015AB002074776F204E756D626572730A0A656E7465722077697468203020666972737404
:1915CB000044657369726564206B443A2025690025690A25690A256900D2
:200CB5007A10E4FBFCE58225E0F582E58333F583EB33FBEC33FCEB9511F5F0EC9512400641
:090CD500FCABF0438201DADD22E0
:06008000E478FFF6D8FD54
:20005E007900E94400601B7A009015EF785175AF00E493F2A308B8000205AFD9F4DAF275D6
:02007E00AFFFD2
:1B0CDE0020F71130F6138883A88220F509F6A8837583002280FEF280F5F02215
:0D0CF900E58330E7076382FF6383FFA322DA
:1D0D0600E5828511F0A4C582C0F08512F0A4D0F025F0C5838511F0A42583F5832294
:200D2300C00F85810FC082058105810581E50F24FBF8A90F0909E6F70809E6F70809E6F76A
:200D4300A80F080886820886830886F01214ABFAA31214ABFBA31214ABFF74012AFCE43BCB
:200D6300FD8F06A80F080886820886830886F0EC120CDEA3ED120CDEA3EE120CDE8A828BE8
:200D8300838FF0A80F08E6120CDE850F81D00F2285820C85830D85F00E75710C757200759E
:200DA3007340850874850975850A76850B77900D23120F87AE82AF83AB0CAC0DAD0E8B826B
:200DC3008C838DF0E4120CDE8E828F8322C00F85810FE50F24F8FF8F77E50F24FBFF8F7155
:200DE300757200757340E50F24F8F88674088675088676900D23120F87AE82AF83E50F24F6
:1B0E0300FBF886030886040886058B828C838DF0E4120CDE8E828F83D00F2297
:200E1E00AAF0FBE5828511F0A4FCADF0E5838511F0A42DFDE435F0FEE5828512F0A42DFD76
:200E3E00E5F03EFEE433FFEA8511F0A42EFEE5F03FFFE5838512F0A42EFEE5F03FFFE582E1
:200E5E008513F0A42EFEE5F03FFFEB8511F0A42FFFEA8512F0A42FFFE5838513F0A42FFFC1
:0E0E7E00E5828514F0A42F8EF08D838C8222E5
:200086007800E84400600A790175AF00E4F309D8FC7850E84400600C7901900001E4F0A318
:0400A600D8FCD9FAAF
:200E8C00C00F85810F120139D00F2285827485837585F076E4F571F572F573851077900E6F
:200EAC008C020F87C00F85810FE50F24FBFF8F77E4F571F572F573E50F24FBF8867408865A
:0D0ECC0075088676900E8C120F87D00F22CD
:200ED900AF82C067C068C069120EE68007C065C0668F8222158115811581056FE4B56F0205
:200EF900057022AF8274302FFF24C6500A74072FFF3001034307208F82020ED9E582FFC490
:200F1900540FF582C007120EFCD007740F5FF582020EFC858211856A12856B13856C148519
:200F39006D15AA6E751620EA2AFAE515235401FF8A064EFAE5122512F512E51333F513E5AF
:200F59001433F514E51533F515C3EA95114008EAC39511FA431201E51614FF8F1670C88543
:200F7900126A85136B85146C85156D8A6E22858265858366857167857268857369E4F56F74
:200F9900F570AD74AE75AF768D828E838FF01214ABFC74012DF574E43EF5758F76ECFF7007
:200FB9000302148CBF25028003021484C202C203C204C205C206C207C208C20975780075D2
:200FD9007900757AFFAA74AB75AE768A828B838EF01214ABFFA3AA82AB838A748B758E76C8
:200FF900BF25078F82120ED98098BF3000402DEF24C6402874FFB57A12E57975F00AA42FDA
:20101900FC24D0F57970C4D20380C0E57A75F00AA4FC8F05ED2C24D0F57A80AFBF2E0A74F8
:20103900FFB57AA7757A0080A2BF6100400CEF248540075307DFD2018002C201BF200280B4
:201059006DBF2B028063BF2D028059BF42028063BF43028068BF440302122ABF4603021242
:2010790040BF4803020FE4BF490302122ABF4A03020FE4BF4C028040BF4F03021231BF509C
:20109900030211BFBF5302805ABF5403020FE4BF5503021236BF580302123BBF5A03020F72
:2010B900E4021244D202020FE4D204020FE4D205020FE4D207020FE4D208020FE430070A9D
:2010D900E57714F9897787078011E57724FEFE8E778E018705098706198D078F82120ED986
:2010F90002124DE57724FDFE8E778E01870409870509870619198C6A8D6B8E6C8C828D8379
:201119008EF0121493AD82AE8374FFB57A028D7A200226C3ED95795020E579C39DF579AE24
:20113900798E041EEC6010758220C006C005120ED9D005D00680EA8E79AE7A856A82856BD1
:2011590083856CF01214ABFCFF602F8E041EC374808CF063F08095F050208F82C006C00570
:20117900120ED9D005D006AA6AAB6BAC6C0ABA00010B8A6A8B6B8C6C80C120020302124DF7
:20119900C3ED9579400302124DE579C39DF579AE798E041EEC700302124B758220C0061224
:2011B9000ED9D00680EBE57724FDFC8C778C01870209870309870419198A6A8B6B8C6CAC75
:2011D9006CBC800040047F438014BC600040047F50800BBC400040047F4980027F588F8288
:2011F900C007120ED975823A120ED9758230120ED9758278120ED9D007BF4902800BBF50E9
:20121900028006856B82120F15856A82120F158023D20675780A801C757808801775780A4D
:201239008012757810800DD20980098F82120ED980028E7930095CE57724FCFE8E778E01DF
:2012590087020987030987040987061919198A6A8B6B8C6C8E6D756AE4756B15756C808569
:201279006A7C856B7D856C7E7401257CFAE4357DFCAE7E8A6A8C6B8E6C857C82857D838553
:201299007EF01214ABFEFF7003020F9B8F82120ED980CCE5787003020F9B757B1C30072D98
:2012B900E57714F9897787048C027B007C007E008A6A8B6B8C6C8E6D200666AA6A7B007CAA
:2012D900007E008A6A8B6B8C6C8E6D8054300821E57724FCFE8E778E0187020987030987B3
:2012F900040987061919198A6A8B6B8C6C8E6D8030E57724FEFE8E778E0187040987061919
:20131900EE3395E0FBFA8C6A8E6B8B6C8A6D200610AA6AAB6B7C007E008A6A8B6B8C6C8E82
:201339006D300622E56D30E71BC3E4956AFAE4956BFBE4956CFCE4956DFE8A6A8B6B8C6C25
:201359008E6D8002C206D20AA97B7E00756E00857882C006C001120F2CD001D006200A0B9F
:20137900E56EC4FCE7FB4CF7198002A76E0EB20AE56A456B456C456D70D2897B8E05E57909
:201399007003757901200324200221ED04FEAC79C3EE9C5015758220C006C005C004120EFC
:2013B900D9D004D005D0061C80E68C7930060E75822DC005120ED9D00515798023ED60209C
:2013D90030040E75822BC005120ED9D0051579800F30050C758220C005120ED9D005157967
:2013F900200226AE798E041EC3ED9C502F3003067B307C0080047B207C008B82C006C00557
:20141900120ED9D005D00680DCC3ED95795008E579C39DF579800775790080028E79A97B4F
:201439008D068E051EED6026B20A200A0A09E7C4540FFD8D6E80078705740F5DF56E856E94
:2014590082C006C001120EFCD001D00680D4200203020F9BAE798E051EED7003020F9B7529
:1A1479008220C006120ED9D00680EB8F82120ED9020F9B856F8285708322F1
:0B15E4003C4E4F20464C4F41543E004F
:18149300AA82AB831214AB6003A380F8C3E5829AF582E5839BF58322C0
:0D00510075817E1214C7E582600302004E27
:1C14AB0020F71430F6148883A88220F507E6A88375830022E280F7E49322E02250
:0414C7007582002208
:00000001FF
